{
	"contracts/BetCandidate.sol": {
		"BetCandidate": {
			"abi": [
				{
					"inputs": [],
					"stateMutability": "nonpayable",
					"type": "constructor"
				},
				{
					"inputs": [
						{
							"internalType": "address",
							"name": "",
							"type": "address"
						}
					],
					"name": "allBets",
					"outputs": [
						{
							"internalType": "uint256",
							"name": "amount",
							"type": "uint256"
						},
						{
							"internalType": "uint256",
							"name": "candidate",
							"type": "uint256"
						},
						{
							"internalType": "uint256",
							"name": "timestamp",
							"type": "uint256"
						},
						{
							"internalType": "uint256",
							"name": "claimed",
							"type": "uint256"
						}
					],
					"stateMutability": "view",
					"type": "function"
				},
				{
					"inputs": [
						{
							"internalType": "uint256",
							"name": "candidate",
							"type": "uint256"
						}
					],
					"name": "bet",
					"outputs": [],
					"stateMutability": "payable",
					"type": "function"
				},
				{
					"inputs": [],
					"name": "claim",
					"outputs": [],
					"stateMutability": "nonpayable",
					"type": "function"
				},
				{
					"inputs": [],
					"name": "dispute",
					"outputs": [
						{
							"internalType": "string",
							"name": "candidate1",
							"type": "string"
						},
						{
							"internalType": "string",
							"name": "candidate2",
							"type": "string"
						},
						{
							"internalType": "string",
							"name": "image1",
							"type": "string"
						},
						{
							"internalType": "string",
							"name": "image2",
							"type": "string"
						},
						{
							"internalType": "uint256",
							"name": "total1",
							"type": "uint256"
						},
						{
							"internalType": "uint256",
							"name": "total2",
							"type": "uint256"
						},
						{
							"internalType": "uint256",
							"name": "winner",
							"type": "uint256"
						}
					],
					"stateMutability": "view",
					"type": "function"
				},
				{
					"inputs": [
						{
							"internalType": "uint256",
							"name": "winner",
							"type": "uint256"
						}
					],
					"name": "finish",
					"outputs": [],
					"stateMutability": "nonpayable",
					"type": "function"
				},
				{
					"inputs": [],
					"name": "netPrize",
					"outputs": [
						{
							"internalType": "uint256",
							"name": "",
							"type": "uint256"
						}
					],
					"stateMutability": "view",
					"type": "function"
				}
			],
			"devdoc": {
				"kind": "dev",
				"methods": {},
				"version": 1
			},
			"evm": {
				"assembly": "    /* \"contracts/BetCandidate.sol\":326:2500  contract BetCandidate {... */\n  mstore(0x40, 0x80)\n    /* \"contracts/BetCandidate.sol\":461:465  1000 */\n  0x03e8\n    /* \"contracts/BetCandidate.sol\":450:465  uint fee = 1000 */\n  0x09\n  sstore\n    /* \"contracts/BetCandidate.sol\":508:976  constructor() {... */\n  callvalue\n  dup1\n  iszero\n  tag_1\n  jumpi\n  0x00\n  dup1\n  revert\ntag_1:\n  pop\n    /* \"contracts/BetCandidate.sol\":541:551  msg.sender */\n  caller\n    /* \"contracts/BetCandidate.sol\":533:538  owner */\n  0x08\n  0x00\n    /* \"contracts/BetCandidate.sol\":533:551  owner = msg.sender */\n  0x0100\n  exp\n  dup2\n  sload\n  dup2\n  0xffffffffffffffffffffffffffffffffffffffff\n  mul\n  not\n  and\n  swap1\n  dup4\n  0xffffffffffffffffffffffffffffffffffffffff\n  and\n  mul\n  or\n  swap1\n  sstore\n  pop\n    /* \"contracts/BetCandidate.sol\":572:968  Dispute({... */\n  mload(0x40)\n  dup1\n  0xe0\n  add\n  0x40\n  mstore\n  dup1\n  mload(0x40)\n  dup1\n  0x40\n  add\n  0x40\n  mstore\n  dup1\n  0x0c\n  dup2\n  mstore\n  0x20\n  add\n  0x446f6e616c74205472756d700000000000000000000000000000000000000000\n  dup2\n  mstore\n  pop\n  dup2\n  mstore\n  0x20\n  add\n  mload(0x40)\n  dup1\n  0x40\n  add\n  0x40\n  mstore\n  dup1\n  0x0d\n  dup2\n  mstore\n  0x20\n  add\n  0x4b616d616c612048617272697300000000000000000000000000000000000000\n  dup2\n  mstore\n  pop\n  dup2\n  mstore\n  0x20\n  add\n  mload(0x40)\n  dup1\n  0x80\n  add\n  0x40\n  mstore\n  dup1\n  0x55\n  dup2\n  mstore\n  0x20\n  add\n  data_c84c47d73cd2a98e716aa23f2149eb6ec552037471be4eaa8ccd693a325a4bb9\n  0x55\n  swap2\n  codecopy\n  dup2\n  mstore\n  0x20\n  add\n  mload(0x40)\n  dup1\n  0x80\n  add\n  0x40\n  mstore\n  dup1\n  0x5c\n  dup2\n  mstore\n  0x20\n  add\n  data_7d919b18d7d3a1a9c754f945ebb2382bc4f4599b7951e5d9cd9887aa3f66711e\n  0x5c\n  swap2\n  codecopy\n  dup2\n  mstore\n  0x20\n  add\n    /* \"contracts/BetCandidate.sol\":909:910  0 */\n  0x00\n    /* \"contracts/BetCandidate.sol\":572:968  Dispute({... */\n  dup2\n  mstore\n  0x20\n  add\n    /* \"contracts/BetCandidate.sol\":932:933  0 */\n  0x00\n    /* \"contracts/BetCandidate.sol\":572:968  Dispute({... */\n  dup2\n  mstore\n  0x20\n  add\n    /* \"contracts/BetCandidate.sol\":955:956  0 */\n  0x00\n    /* \"contracts/BetCandidate.sol\":572:968  Dispute({... */\n  dup2\n  mstore\n  pop\n    /* \"contracts/BetCandidate.sol\":562:569  dispute */\n  0x00\n    /* \"contracts/BetCandidate.sol\":562:968  dispute = Dispute({... */\n  dup1\n  dup3\n  add\n  mload\n  dup2\n  0x00\n  add\n  swap1\n  dup2\n  tag_4\n  swap2\n  swap1\n  tag_5\n  jump\t// in\ntag_4:\n  pop\n  0x20\n  dup3\n  add\n  mload\n  dup2\n  0x01\n  add\n  swap1\n  dup2\n  tag_6\n  swap2\n  swap1\n  tag_5\n  jump\t// in\ntag_6:\n  pop\n  0x40\n  dup3\n  add\n  mload\n  dup2\n  0x02\n  add\n  swap1\n  dup2\n  tag_7\n  swap2\n  swap1\n  tag_5\n  jump\t// in\ntag_7:\n  pop\n  0x60\n  dup3\n  add\n  mload\n  dup2\n  0x03\n  add\n  swap1\n  dup2\n  tag_8\n  swap2\n  swap1\n  tag_5\n  jump\t// in\ntag_8:\n  pop\n  0x80\n  dup3\n  add\n  mload\n  dup2\n  0x04\n  add\n  sstore\n  0xa0\n  dup3\n  add\n  mload\n  dup2\n  0x05\n  add\n  sstore\n  0xc0\n  dup3\n  add\n  mload\n  dup2\n  0x06\n  add\n  sstore\n  swap1\n  pop\n  pop\n    /* \"contracts/BetCandidate.sol\":326:2500  contract BetCandidate {... */\n  jump(tag_9)\n    /* \"#utility.yul\":7:106   */\ntag_10:\n    /* \"#utility.yul\":59:65   */\n  0x00\n    /* \"#utility.yul\":93:98   */\n  dup2\n    /* \"#utility.yul\":87:99   */\n  mload\n    /* \"#utility.yul\":77:99   */\n  swap1\n  pop\n    /* \"#utility.yul\":7:106   */\n  swap2\n  swap1\n  pop\n  jump\t// out\n    /* \"#utility.yul\":112:292   */\ntag_11:\n    /* \"#utility.yul\":160:237   */\n  0x4e487b7100000000000000000000000000000000000000000000000000000000\n    /* \"#utility.yul\":157:158   */\n  0x00\n    /* \"#utility.yul\":150:238   */\n  mstore\n    /* \"#utility.yul\":257:261   */\n  0x41\n    /* \"#utility.yul\":254:255   */\n  0x04\n    /* \"#utility.yul\":247:262   */\n  mstore\n    /* \"#utility.yul\":281:285   */\n  0x24\n    /* \"#utility.yul\":278:279   */\n  0x00\n    /* \"#utility.yul\":271:286   */\n  revert\n    /* \"#utility.yul\":298:478   */\ntag_12:\n    /* \"#utility.yul\":346:423   */\n  0x4e487b7100000000000000000000000000000000000000000000000000000000\n    /* \"#utility.yul\":343:344   */\n  0x00\n    /* \"#utility.yul\":336:424   */\n  mstore\n    /* \"#utility.yul\":443:447   */\n  0x22\n    /* \"#utility.yul\":440:441   */\n  0x04\n    /* \"#utility.yul\":433:448   */\n  mstore\n    /* \"#utility.yul\":467:471   */\n  0x24\n    /* \"#utility.yul\":464:465   */\n  0x00\n    /* \"#utility.yul\":457:472   */\n  revert\n    /* \"#utility.yul\":484:804   */\ntag_13:\n    /* \"#utility.yul\":528:534   */\n  0x00\n    /* \"#utility.yul\":565:566   */\n  0x02\n    /* \"#utility.yul\":559:563   */\n  dup3\n    /* \"#utility.yul\":555:567   */\n  div\n    /* \"#utility.yul\":545:567   */\n  swap1\n  pop\n    /* \"#utility.yul\":612:613   */\n  0x01\n    /* \"#utility.yul\":606:610   */\n  dup3\n    /* \"#utility.yul\":602:614   */\n  and\n    /* \"#utility.yul\":633:651   */\n  dup1\n    /* \"#utility.yul\":623:704   */\n  tag_35\n  jumpi\n    /* \"#utility.yul\":689:693   */\n  0x7f\n    /* \"#utility.yul\":681:687   */\n  dup3\n    /* \"#utility.yul\":677:694   */\n  and\n    /* \"#utility.yul\":667:694   */\n  swap2\n  pop\n    /* \"#utility.yul\":623:704   */\ntag_35:\n    /* \"#utility.yul\":751:753   */\n  0x20\n    /* \"#utility.yul\":743:749   */\n  dup3\n    /* \"#utility.yul\":740:754   */\n  lt\n    /* \"#utility.yul\":720:738   */\n  dup2\n    /* \"#utility.yul\":717:755   */\n  sub\n    /* \"#utility.yul\":714:798   */\n  tag_36\n  jumpi\n    /* \"#utility.yul\":770:788   */\n  tag_37\n  tag_12\n  jump\t// in\ntag_37:\n    /* \"#utility.yul\":714:798   */\ntag_36:\n    /* \"#utility.yul\":535:804   */\n  pop\n    /* \"#utility.yul\":484:804   */\n  swap2\n  swap1\n  pop\n  jump\t// out\n    /* \"#utility.yul\":810:951   */\ntag_14:\n    /* \"#utility.yul\":859:863   */\n  0x00\n    /* \"#utility.yul\":882:885   */\n  dup2\n    /* \"#utility.yul\":874:885   */\n  swap1\n  pop\n    /* \"#utility.yul\":905:908   */\n  dup2\n    /* \"#utility.yul\":902:903   */\n  0x00\n    /* \"#utility.yul\":895:909   */\n  mstore\n    /* \"#utility.yul\":939:943   */\n  0x20\n    /* \"#utility.yul\":936:937   */\n  0x00\n    /* \"#utility.yul\":926:944   */\n  keccak256\n    /* \"#utility.yul\":918:944   */\n  swap1\n  pop\n    /* \"#utility.yul\":810:951   */\n  swap2\n  swap1\n  pop\n  jump\t// out\n    /* \"#utility.yul\":957:1050   */\ntag_15:\n    /* \"#utility.yul\":994:1000   */\n  0x00\n    /* \"#utility.yul\":1041:1043   */\n  0x20\n    /* \"#utility.yul\":1036:1038   */\n  0x1f\n    /* \"#utility.yul\":1029:1034   */\n  dup4\n    /* \"#utility.yul\":1025:1039   */\n  add\n    /* \"#utility.yul\":1021:1044   */\n  div\n    /* \"#utility.yul\":1011:1044   */\n  swap1\n  pop\n    /* \"#utility.yul\":957:1050   */\n  swap2\n  swap1\n  pop\n  jump\t// out\n    /* \"#utility.yul\":1056:1163   */\ntag_16:\n    /* \"#utility.yul\":1100:1108   */\n  0x00\n    /* \"#utility.yul\":1150:1155   */\n  dup3\n    /* \"#utility.yul\":1144:1148   */\n  dup3\n    /* \"#utility.yul\":1140:1156   */\n  shl\n    /* \"#utility.yul\":1119:1156   */\n  swap1\n  pop\n    /* \"#utility.yul\":1056:1163   */\n  swap3\n  swap2\n  pop\n  pop\n  jump\t// out\n    /* \"#utility.yul\":1169:1562   */\ntag_17:\n    /* \"#utility.yul\":1238:1244   */\n  0x00\n    /* \"#utility.yul\":1288:1289   */\n  0x08\n    /* \"#utility.yul\":1276:1286   */\n  dup4\n    /* \"#utility.yul\":1272:1290   */\n  mul\n    /* \"#utility.yul\":1311:1408   */\n  tag_42\n    /* \"#utility.yul\":1341:1407   */\n  0xffffffffffffffffffffffffffffffffffffffffffffffffffffffffffffffff\n    /* \"#utility.yul\":1330:1339   */\n  dup3\n    /* \"#utility.yul\":1311:1408   */\n  tag_16\n  jump\t// in\ntag_42:\n    /* \"#utility.yul\":1429:1468   */\n  tag_43\n    /* \"#utility.yul\":1459:1467   */\n  dup7\n    /* \"#utility.yul\":1448:1457   */\n  dup4\n    /* \"#utility.yul\":1429:1468   */\n  tag_16\n  jump\t// in\ntag_43:\n    /* \"#utility.yul\":1417:1468   */\n  swap6\n  pop\n    /* \"#utility.yul\":1501:1505   */\n  dup1\n    /* \"#utility.yul\":1497:1506   */\n  not\n    /* \"#utility.yul\":1490:1495   */\n  dup5\n    /* \"#utility.yul\":1486:1507   */\n  and\n    /* \"#utility.yul\":1477:1507   */\n  swap4\n  pop\n    /* \"#utility.yul\":1550:1554   */\n  dup1\n    /* \"#utility.yul\":1540:1548   */\n  dup7\n    /* \"#utility.yul\":1536:1555   */\n  and\n    /* \"#utility.yul\":1529:1534   */\n  dup5\n    /* \"#utility.yul\":1526:1556   */\n  or\n    /* \"#utility.yul\":1516:1556   */\n  swap3\n  pop\n    /* \"#utility.yul\":1245:1562   */\n  pop\n  pop\n    /* \"#utility.yul\":1169:1562   */\n  swap4\n  swap3\n  pop\n  pop\n  pop\n  jump\t// out\n    /* \"#utility.yul\":1568:1645   */\ntag_18:\n    /* \"#utility.yul\":1605:1612   */\n  0x00\n    /* \"#utility.yul\":1634:1639   */\n  dup2\n    /* \"#utility.yul\":1623:1639   */\n  swap1\n  pop\n    /* \"#utility.yul\":1568:1645   */\n  swap2\n  swap1\n  pop\n  jump\t// out\n    /* \"#utility.yul\":1651:1711   */\ntag_19:\n    /* \"#utility.yul\":1679:1682   */\n  0x00\n    /* \"#utility.yul\":1700:1705   */\n  dup2\n    /* \"#utility.yul\":1693:1705   */\n  swap1\n  pop\n    /* \"#utility.yul\":1651:1711   */\n  swap2\n  swap1\n  pop\n  jump\t// out\n    /* \"#utility.yul\":1717:1859   */\ntag_20:\n    /* \"#utility.yul\":1767:1776   */\n  0x00\n    /* \"#utility.yul\":1800:1853   */\n  tag_47\n    /* \"#utility.yul\":1818:1852   */\n  tag_48\n    /* \"#utility.yul\":1827:1851   */\n  tag_49\n    /* \"#utility.yul\":1845:1850   */\n  dup5\n    /* \"#utility.yul\":1827:1851   */\n  tag_18\n  jump\t// in\ntag_49:\n    /* \"#utility.yul\":1818:1852   */\n  tag_19\n  jump\t// in\ntag_48:\n    /* \"#utility.yul\":1800:1853   */\n  tag_18\n  jump\t// in\ntag_47:\n    /* \"#utility.yul\":1787:1853   */\n  swap1\n  pop\n    /* \"#utility.yul\":1717:1859   */\n  swap2\n  swap1\n  pop\n  jump\t// out\n    /* \"#utility.yul\":1865:1940   */\ntag_21:\n    /* \"#utility.yul\":1908:1911   */\n  0x00\n    /* \"#utility.yul\":1929:1934   */\n  dup2\n    /* \"#utility.yul\":1922:1934   */\n  swap1\n  pop\n    /* \"#utility.yul\":1865:1940   */\n  swap2\n  swap1\n  pop\n  jump\t// out\n    /* \"#utility.yul\":1946:2215   */\ntag_22:\n    /* \"#utility.yul\":2056:2095   */\n  tag_52\n    /* \"#utility.yul\":2087:2094   */\n  dup4\n    /* \"#utility.yul\":2056:2095   */\n  tag_20\n  jump\t// in\ntag_52:\n    /* \"#utility.yul\":2117:2208   */\n  tag_53\n    /* \"#utility.yul\":2166:2207   */\n  tag_54\n    /* \"#utility.yul\":2190:2206   */\n  dup3\n    /* \"#utility.yul\":2166:2207   */\n  tag_21\n  jump\t// in\ntag_54:\n    /* \"#utility.yul\":2158:2164   */\n  dup5\n    /* \"#utility.yul\":2151:2155   */\n  dup5\n    /* \"#utility.yul\":2145:2156   */\n  sload\n    /* \"#utility.yul\":2117:2208   */\n  tag_17\n  jump\t// in\ntag_53:\n    /* \"#utility.yul\":2111:2115   */\n  dup3\n    /* \"#utility.yul\":2104:2209   */\n  sstore\n    /* \"#utility.yul\":2022:2215   */\n  pop\n    /* \"#utility.yul\":1946:2215   */\n  pop\n  pop\n  pop\n  jump\t// out\n    /* \"#utility.yul\":2221:2294   */\ntag_23:\n    /* \"#utility.yul\":2266:2269   */\n  0x00\n    /* \"#utility.yul\":2221:2294   */\n  swap1\n  jump\t// out\n    /* \"#utility.yul\":2300:2489   */\ntag_24:\n    /* \"#utility.yul\":2377:2409   */\n  tag_57\n  tag_23\n  jump\t// in\ntag_57:\n    /* \"#utility.yul\":2418:2483   */\n  tag_58\n    /* \"#utility.yul\":2476:2482   */\n  dup2\n    /* \"#utility.yul\":2468:2474   */\n  dup5\n    /* \"#utility.yul\":2462:2466   */\n  dup5\n    /* \"#utility.yul\":2418:2483   */\n  tag_22\n  jump\t// in\ntag_58:\n    /* \"#utility.yul\":2353:2489   */\n  pop\n    /* \"#utility.yul\":2300:2489   */\n  pop\n  pop\n  jump\t// out\n    /* \"#utility.yul\":2495:2681   */\ntag_25:\n    /* \"#utility.yul\":2555:2675   */\ntag_60:\n    /* \"#utility.yul\":2572:2575   */\n  dup2\n    /* \"#utility.yul\":2565:2570   */\n  dup2\n    /* \"#utility.yul\":2562:2576   */\n  lt\n    /* \"#utility.yul\":2555:2675   */\n  iszero\n  tag_62\n  jumpi\n    /* \"#utility.yul\":2626:2665   */\n  tag_63\n    /* \"#utility.yul\":2663:2664   */\n  0x00\n    /* \"#utility.yul\":2656:2661   */\n  dup3\n    /* \"#utility.yul\":2626:2665   */\n  tag_24\n  jump\t// in\ntag_63:\n    /* \"#utility.yul\":2599:2600   */\n  0x01\n    /* \"#utility.yul\":2592:2597   */\n  dup2\n    /* \"#utility.yul\":2588:2601   */\n  add\n    /* \"#utility.yul\":2579:2601   */\n  swap1\n  pop\n    /* \"#utility.yul\":2555:2675   */\n  jump(tag_60)\ntag_62:\n    /* \"#utility.yul\":2495:2681   */\n  pop\n  pop\n  jump\t// out\n    /* \"#utility.yul\":2687:3230   */\ntag_26:\n    /* \"#utility.yul\":2788:2790   */\n  0x1f\n    /* \"#utility.yul\":2783:2786   */\n  dup3\n    /* \"#utility.yul\":2780:2791   */\n  gt\n    /* \"#utility.yul\":2777:3223   */\n  iszero\n  tag_65\n  jumpi\n    /* \"#utility.yul\":2822:2860   */\n  tag_66\n    /* \"#utility.yul\":2854:2859   */\n  dup2\n    /* \"#utility.yul\":2822:2860   */\n  tag_14\n  jump\t// in\ntag_66:\n    /* \"#utility.yul\":2906:2935   */\n  tag_67\n    /* \"#utility.yul\":2924:2934   */\n  dup5\n    /* \"#utility.yul\":2906:2935   */\n  tag_15\n  jump\t// in\ntag_67:\n    /* \"#utility.yul\":2896:2904   */\n  dup2\n    /* \"#utility.yul\":2892:2936   */\n  add\n    /* \"#utility.yul\":3089:3091   */\n  0x20\n    /* \"#utility.yul\":3077:3087   */\n  dup6\n    /* \"#utility.yul\":3074:3092   */\n  lt\n    /* \"#utility.yul\":3071:3120   */\n  iszero\n  tag_68\n  jumpi\n    /* \"#utility.yul\":3110:3118   */\n  dup2\n    /* \"#utility.yul\":3095:3118   */\n  swap1\n  pop\n    /* \"#utility.yul\":3071:3120   */\ntag_68:\n    /* \"#utility.yul\":3133:3213   */\n  tag_69\n    /* \"#utility.yul\":3189:3211   */\n  tag_70\n    /* \"#utility.yul\":3207:3210   */\n  dup6\n    /* \"#utility.yul\":3189:3211   */\n  tag_15\n  jump\t// in\ntag_70:\n    /* \"#utility.yul\":3179:3187   */\n  dup4\n    /* \"#utility.yul\":3175:3212   */\n  add\n    /* \"#utility.yul\":3162:3173   */\n  dup3\n    /* \"#utility.yul\":3133:3213   */\n  tag_25\n  jump\t// in\ntag_69:\n    /* \"#utility.yul\":2792:3223   */\n  pop\n  pop\n    /* \"#utility.yul\":2777:3223   */\ntag_65:\n    /* \"#utility.yul\":2687:3230   */\n  pop\n  pop\n  pop\n  jump\t// out\n    /* \"#utility.yul\":3236:3353   */\ntag_27:\n    /* \"#utility.yul\":3290:3298   */\n  0x00\n    /* \"#utility.yul\":3340:3345   */\n  dup3\n    /* \"#utility.yul\":3334:3338   */\n  dup3\n    /* \"#utility.yul\":3330:3346   */\n  shr\n    /* \"#utility.yul\":3309:3346   */\n  swap1\n  pop\n    /* \"#utility.yul\":3236:3353   */\n  swap3\n  swap2\n  pop\n  pop\n  jump\t// out\n    /* \"#utility.yul\":3359:3528   */\ntag_28:\n    /* \"#utility.yul\":3403:3409   */\n  0x00\n    /* \"#utility.yul\":3436:3487   */\n  tag_73\n    /* \"#utility.yul\":3484:3485   */\n  0x00\n    /* \"#utility.yul\":3480:3486   */\n  not\n    /* \"#utility.yul\":3472:3477   */\n  dup5\n    /* \"#utility.yul\":3469:3470   */\n  0x08\n    /* \"#utility.yul\":3465:3478   */\n  mul\n    /* \"#utility.yul\":3436:3487   */\n  tag_27\n  jump\t// in\ntag_73:\n    /* \"#utility.yul\":3432:3488   */\n  not\n    /* \"#utility.yul\":3517:3521   */\n  dup1\n    /* \"#utility.yul\":3511:3515   */\n  dup4\n    /* \"#utility.yul\":3507:3522   */\n  and\n    /* \"#utility.yul\":3497:3522   */\n  swap2\n  pop\n    /* \"#utility.yul\":3410:3528   */\n  pop\n    /* \"#utility.yul\":3359:3528   */\n  swap3\n  swap2\n  pop\n  pop\n  jump\t// out\n    /* \"#utility.yul\":3533:3828   */\ntag_29:\n    /* \"#utility.yul\":3609:3613   */\n  0x00\n    /* \"#utility.yul\":3755:3784   */\n  tag_75\n    /* \"#utility.yul\":3780:3783   */\n  dup4\n    /* \"#utility.yul\":3774:3778   */\n  dup4\n    /* \"#utility.yul\":3755:3784   */\n  tag_28\n  jump\t// in\ntag_75:\n    /* \"#utility.yul\":3747:3784   */\n  swap2\n  pop\n    /* \"#utility.yul\":3817:3820   */\n  dup3\n    /* \"#utility.yul\":3814:3815   */\n  0x02\n    /* \"#utility.yul\":3810:3821   */\n  mul\n    /* \"#utility.yul\":3804:3808   */\n  dup3\n    /* \"#utility.yul\":3801:3822   */\n  or\n    /* \"#utility.yul\":3793:3822   */\n  swap1\n  pop\n    /* \"#utility.yul\":3533:3828   */\n  swap3\n  swap2\n  pop\n  pop\n  jump\t// out\n    /* \"#utility.yul\":3833:5228   */\ntag_5:\n    /* \"#utility.yul\":3950:3987   */\n  tag_77\n    /* \"#utility.yul\":3983:3986   */\n  dup3\n    /* \"#utility.yul\":3950:3987   */\n  tag_10\n  jump\t// in\ntag_77:\n    /* \"#utility.yul\":4052:4070   */\n  0xffffffffffffffff\n    /* \"#utility.yul\":4044:4050   */\n  dup2\n    /* \"#utility.yul\":4041:4071   */\n  gt\n    /* \"#utility.yul\":4038:4094   */\n  iszero\n  tag_78\n  jumpi\n    /* \"#utility.yul\":4074:4092   */\n  tag_79\n  tag_11\n  jump\t// in\ntag_79:\n    /* \"#utility.yul\":4038:4094   */\ntag_78:\n    /* \"#utility.yul\":4118:4156   */\n  tag_80\n    /* \"#utility.yul\":4150:4154   */\n  dup3\n    /* \"#utility.yul\":4144:4155   */\n  sload\n    /* \"#utility.yul\":4118:4156   */\n  tag_13\n  jump\t// in\ntag_80:\n    /* \"#utility.yul\":4203:4270   */\n  tag_81\n    /* \"#utility.yul\":4263:4269   */\n  dup3\n    /* \"#utility.yul\":4255:4261   */\n  dup3\n    /* \"#utility.yul\":4249:4253   */\n  dup6\n    /* \"#utility.yul\":4203:4270   */\n  tag_26\n  jump\t// in\ntag_81:\n    /* \"#utility.yul\":4297:4298   */\n  0x00\n    /* \"#utility.yul\":4321:4325   */\n  0x20\n    /* \"#utility.yul\":4308:4325   */\n  swap1\n  pop\n    /* \"#utility.yul\":4353:4355   */\n  0x1f\n    /* \"#utility.yul\":4345:4351   */\n  dup4\n    /* \"#utility.yul\":4342:4356   */\n  gt\n    /* \"#utility.yul\":4370:4371   */\n  0x01\n    /* \"#utility.yul\":4365:4983   */\n  dup2\n  eq\n  tag_83\n  jumpi\n    /* \"#utility.yul\":5027:5028   */\n  0x00\n    /* \"#utility.yul\":5044:5050   */\n  dup5\n    /* \"#utility.yul\":5041:5118   */\n  iszero\n  tag_84\n  jumpi\n    /* \"#utility.yul\":5093:5102   */\n  dup3\n    /* \"#utility.yul\":5088:5091   */\n  dup8\n    /* \"#utility.yul\":5084:5103   */\n  add\n    /* \"#utility.yul\":5078:5104   */\n  mload\n    /* \"#utility.yul\":5069:5104   */\n  swap1\n  pop\n    /* \"#utility.yul\":5041:5118   */\ntag_84:\n    /* \"#utility.yul\":5144:5211   */\n  tag_85\n    /* \"#utility.yul\":5204:5210   */\n  dup6\n    /* \"#utility.yul\":5197:5202   */\n  dup3\n    /* \"#utility.yul\":5144:5211   */\n  tag_29\n  jump\t// in\ntag_85:\n    /* \"#utility.yul\":5138:5142   */\n  dup7\n    /* \"#utility.yul\":5131:5212   */\n  sstore\n    /* \"#utility.yul\":5000:5222   */\n  pop\n    /* \"#utility.yul\":4335:5222   */\n  jump(tag_82)\n    /* \"#utility.yul\":4365:4983   */\ntag_83:\n    /* \"#utility.yul\":4417:4421   */\n  0x1f\n    /* \"#utility.yul\":4413:4422   */\n  not\n    /* \"#utility.yul\":4405:4411   */\n  dup5\n    /* \"#utility.yul\":4401:4423   */\n  and\n    /* \"#utility.yul\":4451:4488   */\n  tag_86\n    /* \"#utility.yul\":4483:4487   */\n  dup7\n    /* \"#utility.yul\":4451:4488   */\n  tag_14\n  jump\t// in\ntag_86:\n    /* \"#utility.yul\":4510:4511   */\n  0x00\n    /* \"#utility.yul\":4524:4732   */\ntag_87:\n    /* \"#utility.yul\":4538:4545   */\n  dup3\n    /* \"#utility.yul\":4535:4536   */\n  dup2\n    /* \"#utility.yul\":4532:4546   */\n  lt\n    /* \"#utility.yul\":4524:4732   */\n  iszero\n  tag_89\n  jumpi\n    /* \"#utility.yul\":4617:4626   */\n  dup5\n    /* \"#utility.yul\":4612:4615   */\n  dup10\n    /* \"#utility.yul\":4608:4627   */\n  add\n    /* \"#utility.yul\":4602:4628   */\n  mload\n    /* \"#utility.yul\":4594:4600   */\n  dup3\n    /* \"#utility.yul\":4587:4629   */\n  sstore\n    /* \"#utility.yul\":4668:4669   */\n  0x01\n    /* \"#utility.yul\":4660:4666   */\n  dup3\n    /* \"#utility.yul\":4656:4670   */\n  add\n    /* \"#utility.yul\":4646:4670   */\n  swap2\n  pop\n    /* \"#utility.yul\":4715:4717   */\n  0x20\n    /* \"#utility.yul\":4704:4713   */\n  dup6\n    /* \"#utility.yul\":4700:4718   */\n  add\n    /* \"#utility.yul\":4687:4718   */\n  swap5\n  pop\n    /* \"#utility.yul\":4561:4565   */\n  0x20\n    /* \"#utility.yul\":4558:4559   */\n  dup2\n    /* \"#utility.yul\":4554:4566   */\n  add\n    /* \"#utility.yul\":4549:4566   */\n  swap1\n  pop\n    /* \"#utility.yul\":4524:4732   */\n  jump(tag_87)\ntag_89:\n    /* \"#utility.yul\":4760:4766   */\n  dup7\n    /* \"#utility.yul\":4751:4758   */\n  dup4\n    /* \"#utility.yul\":4748:4767   */\n  lt\n    /* \"#utility.yul\":4745:4924   */\n  iszero\n  tag_90\n  jumpi\n    /* \"#utility.yul\":4818:4827   */\n  dup5\n    /* \"#utility.yul\":4813:4816   */\n  dup10\n    /* \"#utility.yul\":4809:4828   */\n  add\n    /* \"#utility.yul\":4803:4829   */\n  mload\n    /* \"#utility.yul\":4861:4909   */\n  tag_91\n    /* \"#utility.yul\":4903:4907   */\n  0x1f\n    /* \"#utility.yul\":4895:4901   */\n  dup10\n    /* \"#utility.yul\":4891:4908   */\n  and\n    /* \"#utility.yul\":4880:4889   */\n  dup3\n    /* \"#utility.yul\":4861:4909   */\n  tag_28\n  jump\t// in\ntag_91:\n    /* \"#utility.yul\":4853:4859   */\n  dup4\n    /* \"#utility.yul\":4846:4910   */\n  sstore\n    /* \"#utility.yul\":4768:4924   */\n  pop\n    /* \"#utility.yul\":4745:4924   */\ntag_90:\n    /* \"#utility.yul\":4970:4971   */\n  0x01\n    /* \"#utility.yul\":4966:4967   */\n  0x02\n    /* \"#utility.yul\":4958:4964   */\n  dup9\n    /* \"#utility.yul\":4954:4968   */\n  mul\n    /* \"#utility.yul\":4950:4972   */\n  add\n    /* \"#utility.yul\":4944:4948   */\n  dup9\n    /* \"#utility.yul\":4937:4973   */\n  sstore\n    /* \"#utility.yul\":4372:4983   */\n  pop\n  pop\n  pop\n    /* \"#utility.yul\":4335:5222   */\ntag_82:\n  pop\n    /* \"#utility.yul\":3925:5228   */\n  pop\n  pop\n  pop\n    /* \"#utility.yul\":3833:5228   */\n  pop\n  pop\n  jump\t// out\n    /* \"contracts/BetCandidate.sol\":326:2500  contract BetCandidate {... */\ntag_9:\n  dataSize(sub_0)\n  dup1\n  dataOffset(sub_0)\n  0x00\n  codecopy\n  0x00\n  return\nstop\ndata_7d919b18d7d3a1a9c754f945ebb2382bc4f4599b7951e5d9cd9887aa3f66711e 68747470733a2f2f656e637279707465642d74626e302e677374617469632e636f6d2f696d616765733f713d74626e3a414e6439476351486f6a4d4758394170534731772d57396b376b33324168735f556b6c5a5f44535a66772673\ndata_c84c47d73cd2a98e716aa23f2149eb6ec552037471be4eaa8ccd693a325a4bb9 68747470733a2f2f766172696574792e636f6d2f77702d636f6e74656e742f75706c6f6164732f323032342f30392f7472756d702d73686f6f74696e672e6a70673f773d3130303026683d3636372663726f703d31\n\nsub_0: assembly {\n        /* \"contracts/BetCandidate.sol\":326:2500  contract BetCandidate {... */\n      mstore(0x40, 0x80)\n      jumpi(tag_1, lt(calldatasize, 0x04))\n      shr(0xe0, calldataload(0x00))\n      dup1\n      0x121de3f6\n      eq\n      tag_2\n      jumpi\n      dup1\n      0x4e71d92d\n      eq\n      tag_3\n      jumpi\n      dup1\n      0x7365870b\n      eq\n      tag_4\n      jumpi\n      dup1\n      0x93bebee8\n      eq\n      tag_5\n      jumpi\n      dup1\n      0xd353a1cb\n      eq\n      tag_6\n      jumpi\n      dup1\n      0xf240f7c3\n      eq\n      tag_7\n      jumpi\n    tag_1:\n      0x00\n      dup1\n      revert\n        /* \"contracts/BetCandidate.sol\":479:499  uint public netPrize */\n    tag_2:\n      callvalue\n      dup1\n      iszero\n      tag_8\n      jumpi\n      0x00\n      dup1\n      revert\n    tag_8:\n      pop\n      tag_9\n      tag_10\n      jump\t// in\n    tag_9:\n      mload(0x40)\n      tag_11\n      swap2\n      swap1\n      tag_12\n      jump\t// in\n    tag_11:\n      mload(0x40)\n      dup1\n      swap2\n      sub\n      swap1\n      return\n        /* \"contracts/BetCandidate.sol\":1996:2497  function claim() external {... */\n    tag_3:\n      callvalue\n      dup1\n      iszero\n      tag_13\n      jumpi\n      0x00\n      dup1\n      revert\n    tag_13:\n      pop\n      tag_14\n      tag_15\n      jump\t// in\n    tag_14:\n      stop\n        /* \"contracts/BetCandidate.sol\":984:1508  function bet(uint candidate) external payable  {... */\n    tag_4:\n      tag_16\n      0x04\n      dup1\n      calldatasize\n      sub\n      dup2\n      add\n      swap1\n      tag_17\n      swap2\n      swap1\n      tag_18\n      jump\t// in\n    tag_17:\n      tag_19\n      jump\t// in\n    tag_16:\n      stop\n        /* \"contracts/BetCandidate.sol\":384:422  mapping(address => Bet) public allBets */\n    tag_5:\n      callvalue\n      dup1\n      iszero\n      tag_20\n      jumpi\n      0x00\n      dup1\n      revert\n    tag_20:\n      pop\n      tag_21\n      0x04\n      dup1\n      calldatasize\n      sub\n      dup2\n      add\n      swap1\n      tag_22\n      swap2\n      swap1\n      tag_23\n      jump\t// in\n    tag_22:\n      tag_24\n      jump\t// in\n    tag_21:\n      mload(0x40)\n      tag_25\n      swap5\n      swap4\n      swap3\n      swap2\n      swap1\n      tag_26\n      jump\t// in\n    tag_25:\n      mload(0x40)\n      dup1\n      swap2\n      sub\n      swap1\n      return\n        /* \"contracts/BetCandidate.sol\":1516:1988  function finish(uint winner) external {... */\n    tag_6:\n      callvalue\n      dup1\n      iszero\n      tag_27\n      jumpi\n      0x00\n      dup1\n      revert\n    tag_27:\n      pop\n      tag_28\n      0x04\n      dup1\n      calldatasize\n      sub\n      dup2\n      add\n      swap1\n      tag_29\n      swap2\n      swap1\n      tag_18\n      jump\t// in\n    tag_29:\n      tag_30\n      jump\t// in\n    tag_28:\n      stop\n        /* \"contracts/BetCandidate.sol\":355:377  Dispute public dispute */\n    tag_7:\n      callvalue\n      dup1\n      iszero\n      tag_31\n      jumpi\n      0x00\n      dup1\n      revert\n    tag_31:\n      pop\n      tag_32\n      tag_33\n      jump\t// in\n    tag_32:\n      mload(0x40)\n      tag_34\n      swap8\n      swap7\n      swap6\n      swap5\n      swap4\n      swap3\n      swap2\n      swap1\n      tag_35\n      jump\t// in\n    tag_34:\n      mload(0x40)\n      dup1\n      swap2\n      sub\n      swap1\n      return\n        /* \"contracts/BetCandidate.sol\":479:499  uint public netPrize */\n    tag_10:\n      sload(0x0a)\n      dup2\n      jump\t// out\n        /* \"contracts/BetCandidate.sol\":1996:2497  function claim() external {... */\n    tag_15:\n        /* \"contracts/BetCandidate.sol\":2033:2051  Bet memory userBet */\n      0x00\n        /* \"contracts/BetCandidate.sol\":2054:2061  allBets */\n      0x07\n        /* \"contracts/BetCandidate.sol\":2054:2073  allBets[msg.sender] */\n      0x00\n        /* \"contracts/BetCandidate.sol\":2062:2072  msg.sender */\n      caller\n        /* \"contracts/BetCandidate.sol\":2054:2073  allBets[msg.sender] */\n      0xffffffffffffffffffffffffffffffffffffffff\n      and\n      0xffffffffffffffffffffffffffffffffffffffff\n      and\n      dup2\n      mstore\n      0x20\n      add\n      swap1\n      dup2\n      mstore\n      0x20\n      add\n      0x00\n      keccak256\n        /* \"contracts/BetCandidate.sol\":2033:2073  Bet memory userBet = allBets[msg.sender] */\n      mload(0x40)\n      dup1\n      0x80\n      add\n      0x40\n      mstore\n      swap1\n      dup2\n      0x00\n      dup3\n      add\n      sload\n      dup2\n      mstore\n      0x20\n      add\n      0x01\n      dup3\n      add\n      sload\n      dup2\n      mstore\n      0x20\n      add\n      0x02\n      dup3\n      add\n      sload\n      dup2\n      mstore\n      0x20\n      add\n      0x03\n      dup3\n      add\n      sload\n      dup2\n      mstore\n      pop\n      pop\n      swap1\n      pop\n        /* \"contracts/BetCandidate.sol\":2109:2110  0 */\n      0x00\n        /* \"contracts/BetCandidate.sol\":2092:2099  dispute */\n      dup1\n        /* \"contracts/BetCandidate.sol\":2092:2106  dispute.winner */\n      0x06\n      add\n      sload\n        /* \"contracts/BetCandidate.sol\":2092:2110  dispute.winner > 0 */\n      gt\n        /* \"contracts/BetCandidate.sol\":2092:2149  dispute.winner > 0 && dispute.winner == userBet.candidate */\n      dup1\n      iszero\n      tag_37\n      jumpi\n      pop\n        /* \"contracts/BetCandidate.sol\":2132:2139  userBet */\n      dup1\n        /* \"contracts/BetCandidate.sol\":2132:2149  userBet.candidate */\n      0x20\n      add\n      mload\n        /* \"contracts/BetCandidate.sol\":2114:2121  dispute */\n      0x00\n        /* \"contracts/BetCandidate.sol\":2114:2128  dispute.winner */\n      0x06\n      add\n      sload\n        /* \"contracts/BetCandidate.sol\":2114:2149  dispute.winner == userBet.candidate */\n      eq\n        /* \"contracts/BetCandidate.sol\":2092:2149  dispute.winner > 0 && dispute.winner == userBet.candidate */\n    tag_37:\n        /* \"contracts/BetCandidate.sol\":2092:2173  dispute.winner > 0 && dispute.winner == userBet.candidate && userBet.claimed == 0 */\n      dup1\n      iszero\n      tag_38\n      jumpi\n      pop\n        /* \"contracts/BetCandidate.sol\":2172:2173  0 */\n      0x00\n        /* \"contracts/BetCandidate.sol\":2153:2160  userBet */\n      dup2\n        /* \"contracts/BetCandidate.sol\":2153:2168  userBet.claimed */\n      0x60\n      add\n      mload\n        /* \"contracts/BetCandidate.sol\":2153:2173  userBet.claimed == 0 */\n      eq\n        /* \"contracts/BetCandidate.sol\":2092:2173  dispute.winner > 0 && dispute.winner == userBet.candidate && userBet.claimed == 0 */\n    tag_38:\n        /* \"contracts/BetCandidate.sol\":2084:2174  require(dispute.winner > 0 && dispute.winner == userBet.candidate && userBet.claimed == 0) */\n      tag_39\n      jumpi\n      0x00\n      dup1\n      revert\n    tag_39:\n        /* \"contracts/BetCandidate.sol\":2187:2204  uint winnerAmount */\n      0x00\n        /* \"contracts/BetCandidate.sol\":2225:2226  1 */\n      0x01\n        /* \"contracts/BetCandidate.sol\":2207:2214  dispute */\n      0x00\n        /* \"contracts/BetCandidate.sol\":2207:2221  dispute.winner */\n      0x06\n      add\n      sload\n        /* \"contracts/BetCandidate.sol\":2207:2226  dispute.winner == 1 */\n      eq\n        /* \"contracts/BetCandidate.sol\":2207:2260  dispute.winner == 1 ? dispute.total1 : dispute.total2 */\n      tag_40\n      jumpi\n        /* \"contracts/BetCandidate.sol\":2246:2253  dispute */\n      0x00\n        /* \"contracts/BetCandidate.sol\":2246:2260  dispute.total2 */\n      0x05\n      add\n      sload\n        /* \"contracts/BetCandidate.sol\":2207:2260  dispute.winner == 1 ? dispute.total1 : dispute.total2 */\n      jump(tag_41)\n    tag_40:\n        /* \"contracts/BetCandidate.sol\":2229:2236  dispute */\n      0x00\n        /* \"contracts/BetCandidate.sol\":2229:2243  dispute.total1 */\n      0x04\n      add\n      sload\n        /* \"contracts/BetCandidate.sol\":2207:2260  dispute.winner == 1 ? dispute.total1 : dispute.total2 */\n    tag_41:\n        /* \"contracts/BetCandidate.sol\":2187:2260  uint winnerAmount = dispute.winner == 1 ? dispute.total1 : dispute.total2 */\n      swap1\n      pop\n        /* \"contracts/BetCandidate.sol\":2271:2281  uint ratio */\n      0x00\n        /* \"contracts/BetCandidate.sol\":2309:2321  winnerAmount */\n      dup2\n        /* \"contracts/BetCandidate.sol\":2302:2305  1e4 */\n      0x2710\n        /* \"contracts/BetCandidate.sol\":2285:2292  userBet */\n      dup5\n        /* \"contracts/BetCandidate.sol\":2285:2299  userBet.amount */\n      0x00\n      add\n      mload\n        /* \"contracts/BetCandidate.sol\":2285:2305  userBet.amount * 1e4 */\n      tag_42\n      swap2\n      swap1\n      tag_43\n      jump\t// in\n    tag_42:\n        /* \"contracts/BetCandidate.sol\":2284:2321  (userBet.amount * 1e4) / winnerAmount */\n      tag_44\n      swap2\n      swap1\n      tag_45\n      jump\t// in\n    tag_44:\n        /* \"contracts/BetCandidate.sol\":2271:2321  uint ratio = (userBet.amount * 1e4) / winnerAmount */\n      swap1\n      pop\n        /* \"contracts/BetCandidate.sol\":2332:2352  uint individualPrize */\n      0x00\n        /* \"contracts/BetCandidate.sol\":2374:2377  1e4 */\n      0x2710\n        /* \"contracts/BetCandidate.sol\":2366:2371  ratio */\n      dup3\n        /* \"contracts/BetCandidate.sol\":2355:2363  netPrize */\n      sload(0x0a)\n        /* \"contracts/BetCandidate.sol\":2355:2371  netPrize * ratio */\n      tag_46\n      swap2\n      swap1\n      tag_43\n      jump\t// in\n    tag_46:\n        /* \"contracts/BetCandidate.sol\":2355:2377  netPrize * ratio / 1e4 */\n      tag_47\n      swap2\n      swap1\n      tag_45\n      jump\t// in\n    tag_47:\n        /* \"contracts/BetCandidate.sol\":2332:2377  uint individualPrize = netPrize * ratio / 1e4 */\n      swap1\n      pop\n        /* \"contracts/BetCandidate.sol\":2418:2433  individualPrize */\n      dup1\n        /* \"contracts/BetCandidate.sol\":2388:2395  allBets */\n      0x07\n        /* \"contracts/BetCandidate.sol\":2388:2407  allBets[msg.sender] */\n      0x00\n        /* \"contracts/BetCandidate.sol\":2396:2406  msg.sender */\n      caller\n        /* \"contracts/BetCandidate.sol\":2388:2407  allBets[msg.sender] */\n      0xffffffffffffffffffffffffffffffffffffffff\n      and\n      0xffffffffffffffffffffffffffffffffffffffff\n      and\n      dup2\n      mstore\n      0x20\n      add\n      swap1\n      dup2\n      mstore\n      0x20\n      add\n      0x00\n      keccak256\n        /* \"contracts/BetCandidate.sol\":2388:2415  allBets[msg.sender].claimed */\n      0x03\n      add\n        /* \"contracts/BetCandidate.sol\":2388:2433  allBets[msg.sender].claimed = individualPrize */\n      dup2\n      swap1\n      sstore\n      pop\n        /* \"contracts/BetCandidate.sol\":2452:2462  msg.sender */\n      caller\n        /* \"contracts/BetCandidate.sol\":2444:2472  payable(msg.sender).transfer */\n      0xffffffffffffffffffffffffffffffffffffffff\n      and\n        /* \"contracts/BetCandidate.sol\":2444:2489  payable(msg.sender).transfer(individualPrize) */\n      0x08fc\n        /* \"contracts/BetCandidate.sol\":2473:2488  individualPrize */\n      dup3\n        /* \"contracts/BetCandidate.sol\":2444:2489  payable(msg.sender).transfer(individualPrize) */\n      swap1\n      dup2\n      iszero\n      mul\n      swap1\n      mload(0x40)\n      0x00\n      mload(0x40)\n      dup1\n      dup4\n      sub\n      dup2\n      dup6\n      dup9\n      dup9\n      call\n      swap4\n      pop\n      pop\n      pop\n      pop\n      iszero\n      dup1\n      iszero\n      tag_49\n      jumpi\n      returndatasize\n      0x00\n      dup1\n      returndatacopy\n      revert(0x00, returndatasize)\n    tag_49:\n      pop\n        /* \"contracts/BetCandidate.sol\":2022:2497  {... */\n      pop\n      pop\n      pop\n      pop\n        /* \"contracts/BetCandidate.sol\":1996:2497  function claim() external {... */\n      jump\t// out\n        /* \"contracts/BetCandidate.sol\":984:1508  function bet(uint candidate) external payable  {... */\n    tag_19:\n        /* \"contracts/BetCandidate.sol\":1063:1064  1 */\n      0x01\n        /* \"contracts/BetCandidate.sol\":1050:1059  candidate */\n      dup2\n        /* \"contracts/BetCandidate.sol\":1050:1064  candidate == 1 */\n      eq\n        /* \"contracts/BetCandidate.sol\":1050:1082  candidate == 1 || candidate == 2 */\n      dup1\n      tag_51\n      jumpi\n      pop\n        /* \"contracts/BetCandidate.sol\":1081:1082  2 */\n      0x02\n        /* \"contracts/BetCandidate.sol\":1068:1077  candidate */\n      dup2\n        /* \"contracts/BetCandidate.sol\":1068:1082  candidate == 2 */\n      eq\n        /* \"contracts/BetCandidate.sol\":1050:1082  candidate == 1 || candidate == 2 */\n    tag_51:\n        /* \"contracts/BetCandidate.sol\":1042:1104  require(candidate == 1 || candidate == 2, \"Invalid candidate\") */\n      tag_52\n      jumpi\n      mload(0x40)\n      0x08c379a000000000000000000000000000000000000000000000000000000000\n      dup2\n      mstore\n      0x04\n      add\n      tag_53\n      swap1\n      tag_54\n      jump\t// in\n    tag_53:\n      mload(0x40)\n      dup1\n      swap2\n      sub\n      swap1\n      revert\n    tag_52:\n        /* \"contracts/BetCandidate.sol\":1135:1136  0 */\n      0x00\n        /* \"contracts/BetCandidate.sol\":1123:1132  msg.value */\n      callvalue\n        /* \"contracts/BetCandidate.sol\":1123:1136  msg.value > 0 */\n      gt\n        /* \"contracts/BetCandidate.sol\":1115:1152  require(msg.value > 0, \"Invalid Bet\") */\n      tag_55\n      jumpi\n      mload(0x40)\n      0x08c379a000000000000000000000000000000000000000000000000000000000\n      dup2\n      mstore\n      0x04\n      add\n      tag_56\n      swap1\n      tag_57\n      jump\t// in\n    tag_56:\n      mload(0x40)\n      dup1\n      swap2\n      sub\n      swap1\n      revert\n    tag_55:\n        /* \"contracts/BetCandidate.sol\":1189:1190  0 */\n      0x00\n        /* \"contracts/BetCandidate.sol\":1171:1178  dispute */\n      dup1\n        /* \"contracts/BetCandidate.sol\":1171:1185  dispute.winner */\n      0x06\n      add\n      sload\n        /* \"contracts/BetCandidate.sol\":1171:1190  dispute.winner == 0 */\n      eq\n        /* \"contracts/BetCandidate.sol\":1163:1209  require(dispute.winner == 0, \"Dispute closed\") */\n      tag_58\n      jumpi\n      mload(0x40)\n      0x08c379a000000000000000000000000000000000000000000000000000000000\n      dup2\n      mstore\n      0x04\n      add\n      tag_59\n      swap1\n      tag_60\n      jump\t// in\n    tag_59:\n      mload(0x40)\n      dup1\n      swap2\n      sub\n      swap1\n      revert\n    tag_58:\n        /* \"contracts/BetCandidate.sol\":1222:1239  Bet memory newBet */\n      tag_61\n      tag_62\n      jump\t// in\n    tag_61:\n        /* \"contracts/BetCandidate.sol\":1266:1275  msg.value */\n      callvalue\n        /* \"contracts/BetCandidate.sol\":1250:1256  newBet */\n      dup2\n        /* \"contracts/BetCandidate.sol\":1250:1263  newBet.amount */\n      0x00\n      add\n        /* \"contracts/BetCandidate.sol\":1250:1275  newBet.amount = msg.value */\n      dup2\n      dup2\n      mstore\n      pop\n      pop\n        /* \"contracts/BetCandidate.sol\":1305:1314  candidate */\n      dup2\n        /* \"contracts/BetCandidate.sol\":1286:1292  newBet */\n      dup2\n        /* \"contracts/BetCandidate.sol\":1286:1302  newBet.candidate */\n      0x20\n      add\n        /* \"contracts/BetCandidate.sol\":1286:1314  newBet.candidate = candidate */\n      dup2\n      dup2\n      mstore\n      pop\n      pop\n        /* \"contracts/BetCandidate.sol\":1344:1359  block.timestamp */\n      timestamp\n        /* \"contracts/BetCandidate.sol\":1325:1331  newBet */\n      dup2\n        /* \"contracts/BetCandidate.sol\":1325:1341  newBet.timestamp */\n      0x40\n      add\n        /* \"contracts/BetCandidate.sol\":1325:1359  newBet.timestamp = block.timestamp */\n      dup2\n      dup2\n      mstore\n      pop\n      pop\n        /* \"contracts/BetCandidate.sol\":1394:1400  newBet */\n      dup1\n        /* \"contracts/BetCandidate.sol\":1372:1379  allBets */\n      0x07\n        /* \"contracts/BetCandidate.sol\":1372:1391  allBets[msg.sender] */\n      0x00\n        /* \"contracts/BetCandidate.sol\":1380:1390  msg.sender */\n      caller\n        /* \"contracts/BetCandidate.sol\":1372:1391  allBets[msg.sender] */\n      0xffffffffffffffffffffffffffffffffffffffff\n      and\n      0xffffffffffffffffffffffffffffffffffffffff\n      and\n      dup2\n      mstore\n      0x20\n      add\n      swap1\n      dup2\n      mstore\n      0x20\n      add\n      0x00\n      keccak256\n        /* \"contracts/BetCandidate.sol\":1372:1400  allBets[msg.sender] = newBet */\n      0x00\n      dup3\n      add\n      mload\n      dup2\n      0x00\n      add\n      sstore\n      0x20\n      dup3\n      add\n      mload\n      dup2\n      0x01\n      add\n      sstore\n      0x40\n      dup3\n      add\n      mload\n      dup2\n      0x02\n      add\n      sstore\n      0x60\n      dup3\n      add\n      mload\n      dup2\n      0x03\n      add\n      sstore\n      swap1\n      pop\n      pop\n        /* \"contracts/BetCandidate.sol\":1427:1428  1 */\n      0x01\n        /* \"contracts/BetCandidate.sol\":1414:1423  candidate */\n      dup3\n        /* \"contracts/BetCandidate.sol\":1414:1428  candidate == 1 */\n      sub\n        /* \"contracts/BetCandidate.sol\":1411:1500  if(candidate == 1) dispute.total1 += msg.value;... */\n      tag_63\n      jumpi\n        /* \"contracts/BetCandidate.sol\":1448:1457  msg.value */\n      callvalue\n        /* \"contracts/BetCandidate.sol\":1430:1437  dispute */\n      0x00\n        /* \"contracts/BetCandidate.sol\":1430:1444  dispute.total1 */\n      0x04\n      add\n      0x00\n        /* \"contracts/BetCandidate.sol\":1430:1457  dispute.total1 += msg.value */\n      dup3\n      dup3\n      sload\n      tag_64\n      swap2\n      swap1\n      tag_65\n      jump\t// in\n    tag_64:\n      swap3\n      pop\n      pop\n      dup2\n      swap1\n      sstore\n      pop\n        /* \"contracts/BetCandidate.sol\":1411:1500  if(candidate == 1) dispute.total1 += msg.value;... */\n      jump(tag_66)\n    tag_63:\n        /* \"contracts/BetCandidate.sol\":1491:1500  msg.value */\n      callvalue\n        /* \"contracts/BetCandidate.sol\":1473:1480  dispute */\n      0x00\n        /* \"contracts/BetCandidate.sol\":1473:1487  dispute.total2 */\n      0x05\n      add\n      0x00\n        /* \"contracts/BetCandidate.sol\":1473:1500  dispute.total2 += msg.value */\n      dup3\n      dup3\n      sload\n      tag_67\n      swap2\n      swap1\n      tag_65\n      jump\t// in\n    tag_67:\n      swap3\n      pop\n      pop\n      dup2\n      swap1\n      sstore\n      pop\n        /* \"contracts/BetCandidate.sol\":1411:1500  if(candidate == 1) dispute.total1 += msg.value;... */\n    tag_66:\n        /* \"contracts/BetCandidate.sol\":1031:1508  {... */\n      pop\n        /* \"contracts/BetCandidate.sol\":984:1508  function bet(uint candidate) external payable  {... */\n      pop\n      jump\t// out\n        /* \"contracts/BetCandidate.sol\":384:422  mapping(address => Bet) public allBets */\n    tag_24:\n      mstore(0x20, 0x07)\n      dup1\n      0x00\n      mstore\n      keccak256(0x00, 0x40)\n      0x00\n      swap2\n      pop\n      swap1\n      pop\n      dup1\n      0x00\n      add\n      sload\n      swap1\n      dup1\n      0x01\n      add\n      sload\n      swap1\n      dup1\n      0x02\n      add\n      sload\n      swap1\n      dup1\n      0x03\n      add\n      sload\n      swap1\n      pop\n      dup5\n      jump\t// out\n        /* \"contracts/BetCandidate.sol\":1516:1988  function finish(uint winner) external {... */\n    tag_30:\n        /* \"contracts/BetCandidate.sol\":1587:1592  owner */\n      0x08\n      0x00\n      swap1\n      sload\n      swap1\n      0x0100\n      exp\n      swap1\n      div\n      0xffffffffffffffffffffffffffffffffffffffff\n      and\n        /* \"contracts/BetCandidate.sol\":1573:1592  msg.sender == owner */\n      0xffffffffffffffffffffffffffffffffffffffff\n      and\n        /* \"contracts/BetCandidate.sol\":1573:1583  msg.sender */\n      caller\n        /* \"contracts/BetCandidate.sol\":1573:1592  msg.sender == owner */\n      0xffffffffffffffffffffffffffffffffffffffff\n      and\n      eq\n        /* \"contracts/BetCandidate.sol\":1565:1613  require(msg.sender == owner, \"Invalid candidae\") */\n      tag_69\n      jumpi\n      mload(0x40)\n      0x08c379a000000000000000000000000000000000000000000000000000000000\n      dup2\n      mstore\n      0x04\n      add\n      tag_70\n      swap1\n      tag_71\n      jump\t// in\n    tag_70:\n      mload(0x40)\n      dup1\n      swap2\n      sub\n      swap1\n      revert\n    tag_69:\n        /* \"contracts/BetCandidate.sol\":1642:1643  1 */\n      0x01\n        /* \"contracts/BetCandidate.sol\":1632:1638  winner */\n      dup2\n        /* \"contracts/BetCandidate.sol\":1632:1643  winner == 1 */\n      eq\n        /* \"contracts/BetCandidate.sol\":1632:1658  winner == 1 || winner == 2 */\n      dup1\n      tag_72\n      jumpi\n      pop\n        /* \"contracts/BetCandidate.sol\":1657:1658  2 */\n      0x02\n        /* \"contracts/BetCandidate.sol\":1647:1653  winner */\n      dup2\n        /* \"contracts/BetCandidate.sol\":1647:1658  winner == 2 */\n      eq\n        /* \"contracts/BetCandidate.sol\":1632:1658  winner == 1 || winner == 2 */\n    tag_72:\n        /* \"contracts/BetCandidate.sol\":1624:1680  require(winner == 1 || winner == 2, \"Invalid candidate\") */\n      tag_73\n      jumpi\n      mload(0x40)\n      0x08c379a000000000000000000000000000000000000000000000000000000000\n      dup2\n      mstore\n      0x04\n      add\n      tag_74\n      swap1\n      tag_54\n      jump\t// in\n    tag_74:\n      mload(0x40)\n      dup1\n      swap2\n      sub\n      swap1\n      revert\n    tag_73:\n        /* \"contracts/BetCandidate.sol\":1717:1718  0 */\n      0x00\n        /* \"contracts/BetCandidate.sol\":1699:1706  dispute */\n      dup1\n        /* \"contracts/BetCandidate.sol\":1699:1713  dispute.winner */\n      0x06\n      add\n      sload\n        /* \"contracts/BetCandidate.sol\":1699:1718  dispute.winner == 0 */\n      eq\n        /* \"contracts/BetCandidate.sol\":1691:1738  require(dispute.winner == 0, \"Disputed closed\") */\n      tag_75\n      jumpi\n      mload(0x40)\n      0x08c379a000000000000000000000000000000000000000000000000000000000\n      dup2\n      mstore\n      0x04\n      add\n      tag_76\n      swap1\n      tag_77\n      jump\t// in\n    tag_76:\n      mload(0x40)\n      dup1\n      swap2\n      sub\n      swap1\n      revert\n    tag_75:\n        /* \"contracts/BetCandidate.sol\":1768:1774  winner */\n      dup1\n        /* \"contracts/BetCandidate.sol\":1751:1758  dispute */\n      0x00\n        /* \"contracts/BetCandidate.sol\":1751:1765  dispute.winner */\n      0x06\n      add\n        /* \"contracts/BetCandidate.sol\":1751:1774  dispute.winner = winner */\n      dup2\n      swap1\n      sstore\n      pop\n        /* \"contracts/BetCandidate.sol\":1785:1800  uint grossPrize */\n      0x00\n        /* \"contracts/BetCandidate.sol\":1820:1827  dispute */\n      dup1\n        /* \"contracts/BetCandidate.sol\":1820:1834  dispute.total2 */\n      0x05\n      add\n      sload\n        /* \"contracts/BetCandidate.sol\":1803:1810  dispute */\n      0x00\n        /* \"contracts/BetCandidate.sol\":1803:1817  dispute.total1 */\n      0x04\n      add\n      sload\n        /* \"contracts/BetCandidate.sol\":1803:1834  dispute.total1 + dispute.total2 */\n      tag_78\n      swap2\n      swap1\n      tag_65\n      jump\t// in\n    tag_78:\n        /* \"contracts/BetCandidate.sol\":1785:1834  uint grossPrize = dispute.total1 + dispute.total2 */\n      swap1\n      pop\n        /* \"contracts/BetCandidate.sol\":1845:1860  uint commission */\n      0x00\n        /* \"contracts/BetCandidate.sol\":1884:1887  1e4 */\n      0x2710\n        /* \"contracts/BetCandidate.sol\":1877:1880  fee */\n      sload(0x09)\n        /* \"contracts/BetCandidate.sol\":1864:1874  grossPrize */\n      dup4\n        /* \"contracts/BetCandidate.sol\":1864:1880  grossPrize * fee */\n      tag_79\n      swap2\n      swap1\n      tag_43\n      jump\t// in\n    tag_79:\n        /* \"contracts/BetCandidate.sol\":1863:1887  (grossPrize * fee) / 1e4 */\n      tag_80\n      swap2\n      swap1\n      tag_45\n      jump\t// in\n    tag_80:\n        /* \"contracts/BetCandidate.sol\":1845:1887  uint commission = (grossPrize * fee) / 1e4 */\n      swap1\n      pop\n        /* \"contracts/BetCandidate.sol\":1922:1932  commission */\n      dup1\n        /* \"contracts/BetCandidate.sol\":1909:1932  grossPrize = commission */\n      swap2\n      pop\n      dup2\n        /* \"contracts/BetCandidate.sol\":1898:1906  netPrize */\n      0x0a\n        /* \"contracts/BetCandidate.sol\":1898:1932  netPrize = grossPrize = commission */\n      dup2\n      swap1\n      sstore\n      pop\n        /* \"contracts/BetCandidate.sol\":1953:1958  owner */\n      0x08\n      0x00\n      swap1\n      sload\n      swap1\n      0x0100\n      exp\n      swap1\n      div\n      0xffffffffffffffffffffffffffffffffffffffff\n      and\n        /* \"contracts/BetCandidate.sol\":1945:1968  payable(owner).transfer */\n      0xffffffffffffffffffffffffffffffffffffffff\n      and\n        /* \"contracts/BetCandidate.sol\":1945:1980  payable(owner).transfer(commission) */\n      0x08fc\n        /* \"contracts/BetCandidate.sol\":1969:1979  commission */\n      dup3\n        /* \"contracts/BetCandidate.sol\":1945:1980  payable(owner).transfer(commission) */\n      swap1\n      dup2\n      iszero\n      mul\n      swap1\n      mload(0x40)\n      0x00\n      mload(0x40)\n      dup1\n      dup4\n      sub\n      dup2\n      dup6\n      dup9\n      dup9\n      call\n      swap4\n      pop\n      pop\n      pop\n      pop\n      iszero\n      dup1\n      iszero\n      tag_82\n      jumpi\n      returndatasize\n      0x00\n      dup1\n      returndatacopy\n      revert(0x00, returndatasize)\n    tag_82:\n      pop\n        /* \"contracts/BetCandidate.sol\":1554:1988  {... */\n      pop\n      pop\n        /* \"contracts/BetCandidate.sol\":1516:1988  function finish(uint winner) external {... */\n      pop\n      jump\t// out\n        /* \"contracts/BetCandidate.sol\":355:377  Dispute public dispute */\n    tag_33:\n      0x00\n      dup1\n      0x00\n      add\n      dup1\n      sload\n      tag_83\n      swap1\n      tag_84\n      jump\t// in\n    tag_83:\n      dup1\n      0x1f\n      add\n      0x20\n      dup1\n      swap2\n      div\n      mul\n      0x20\n      add\n      mload(0x40)\n      swap1\n      dup2\n      add\n      0x40\n      mstore\n      dup1\n      swap3\n      swap2\n      swap1\n      dup2\n      dup2\n      mstore\n      0x20\n      add\n      dup3\n      dup1\n      sload\n      tag_85\n      swap1\n      tag_84\n      jump\t// in\n    tag_85:\n      dup1\n      iszero\n      tag_86\n      jumpi\n      dup1\n      0x1f\n      lt\n      tag_87\n      jumpi\n      0x0100\n      dup1\n      dup4\n      sload\n      div\n      mul\n      dup4\n      mstore\n      swap2\n      0x20\n      add\n      swap2\n      jump(tag_86)\n    tag_87:\n      dup3\n      add\n      swap2\n      swap1\n      0x00\n      mstore\n      keccak256(0x00, 0x20)\n      swap1\n    tag_88:\n      dup2\n      sload\n      dup2\n      mstore\n      swap1\n      0x01\n      add\n      swap1\n      0x20\n      add\n      dup1\n      dup4\n      gt\n      tag_88\n      jumpi\n      dup3\n      swap1\n      sub\n      0x1f\n      and\n      dup3\n      add\n      swap2\n    tag_86:\n      pop\n      pop\n      pop\n      pop\n      pop\n      swap1\n      dup1\n      0x01\n      add\n      dup1\n      sload\n      tag_89\n      swap1\n      tag_84\n      jump\t// in\n    tag_89:\n      dup1\n      0x1f\n      add\n      0x20\n      dup1\n      swap2\n      div\n      mul\n      0x20\n      add\n      mload(0x40)\n      swap1\n      dup2\n      add\n      0x40\n      mstore\n      dup1\n      swap3\n      swap2\n      swap1\n      dup2\n      dup2\n      mstore\n      0x20\n      add\n      dup3\n      dup1\n      sload\n      tag_90\n      swap1\n      tag_84\n      jump\t// in\n    tag_90:\n      dup1\n      iszero\n      tag_91\n      jumpi\n      dup1\n      0x1f\n      lt\n      tag_92\n      jumpi\n      0x0100\n      dup1\n      dup4\n      sload\n      div\n      mul\n      dup4\n      mstore\n      swap2\n      0x20\n      add\n      swap2\n      jump(tag_91)\n    tag_92:\n      dup3\n      add\n      swap2\n      swap1\n      0x00\n      mstore\n      keccak256(0x00, 0x20)\n      swap1\n    tag_93:\n      dup2\n      sload\n      dup2\n      mstore\n      swap1\n      0x01\n      add\n      swap1\n      0x20\n      add\n      dup1\n      dup4\n      gt\n      tag_93\n      jumpi\n      dup3\n      swap1\n      sub\n      0x1f\n      and\n      dup3\n      add\n      swap2\n    tag_91:\n      pop\n      pop\n      pop\n      pop\n      pop\n      swap1\n      dup1\n      0x02\n      add\n      dup1\n      sload\n      tag_94\n      swap1\n      tag_84\n      jump\t// in\n    tag_94:\n      dup1\n      0x1f\n      add\n      0x20\n      dup1\n      swap2\n      div\n      mul\n      0x20\n      add\n      mload(0x40)\n      swap1\n      dup2\n      add\n      0x40\n      mstore\n      dup1\n      swap3\n      swap2\n      swap1\n      dup2\n      dup2\n      mstore\n      0x20\n      add\n      dup3\n      dup1\n      sload\n      tag_95\n      swap1\n      tag_84\n      jump\t// in\n    tag_95:\n      dup1\n      iszero\n      tag_96\n      jumpi\n      dup1\n      0x1f\n      lt\n      tag_97\n      jumpi\n      0x0100\n      dup1\n      dup4\n      sload\n      div\n      mul\n      dup4\n      mstore\n      swap2\n      0x20\n      add\n      swap2\n      jump(tag_96)\n    tag_97:\n      dup3\n      add\n      swap2\n      swap1\n      0x00\n      mstore\n      keccak256(0x00, 0x20)\n      swap1\n    tag_98:\n      dup2\n      sload\n      dup2\n      mstore\n      swap1\n      0x01\n      add\n      swap1\n      0x20\n      add\n      dup1\n      dup4\n      gt\n      tag_98\n      jumpi\n      dup3\n      swap1\n      sub\n      0x1f\n      and\n      dup3\n      add\n      swap2\n    tag_96:\n      pop\n      pop\n      pop\n      pop\n      pop\n      swap1\n      dup1\n      0x03\n      add\n      dup1\n      sload\n      tag_99\n      swap1\n      tag_84\n      jump\t// in\n    tag_99:\n      dup1\n      0x1f\n      add\n      0x20\n      dup1\n      swap2\n      div\n      mul\n      0x20\n      add\n      mload(0x40)\n      swap1\n      dup2\n      add\n      0x40\n      mstore\n      dup1\n      swap3\n      swap2\n      swap1\n      dup2\n      dup2\n      mstore\n      0x20\n      add\n      dup3\n      dup1\n      sload\n      tag_100\n      swap1\n      tag_84\n      jump\t// in\n    tag_100:\n      dup1\n      iszero\n      tag_101\n      jumpi\n      dup1\n      0x1f\n      lt\n      tag_102\n      jumpi\n      0x0100\n      dup1\n      dup4\n      sload\n      div\n      mul\n      dup4\n      mstore\n      swap2\n      0x20\n      add\n      swap2\n      jump(tag_101)\n    tag_102:\n      dup3\n      add\n      swap2\n      swap1\n      0x00\n      mstore\n      keccak256(0x00, 0x20)\n      swap1\n    tag_103:\n      dup2\n      sload\n      dup2\n      mstore\n      swap1\n      0x01\n      add\n      swap1\n      0x20\n      add\n      dup1\n      dup4\n      gt\n      tag_103\n      jumpi\n      dup3\n      swap1\n      sub\n      0x1f\n      and\n      dup3\n      add\n      swap2\n    tag_101:\n      pop\n      pop\n      pop\n      pop\n      pop\n      swap1\n      dup1\n      0x04\n      add\n      sload\n      swap1\n      dup1\n      0x05\n      add\n      sload\n      swap1\n      dup1\n      0x06\n      add\n      sload\n      swap1\n      pop\n      dup8\n      jump\t// out\n    tag_62:\n      mload(0x40)\n      dup1\n      0x80\n      add\n      0x40\n      mstore\n      dup1\n      0x00\n      dup2\n      mstore\n      0x20\n      add\n      0x00\n      dup2\n      mstore\n      0x20\n      add\n      0x00\n      dup2\n      mstore\n      0x20\n      add\n      0x00\n      dup2\n      mstore\n      pop\n      swap1\n      jump\t// out\n        /* \"#utility.yul\":7:84   */\n    tag_104:\n        /* \"#utility.yul\":44:51   */\n      0x00\n        /* \"#utility.yul\":73:78   */\n      dup2\n        /* \"#utility.yul\":62:78   */\n      swap1\n      pop\n        /* \"#utility.yul\":7:84   */\n      swap2\n      swap1\n      pop\n      jump\t// out\n        /* \"#utility.yul\":90:208   */\n    tag_105:\n        /* \"#utility.yul\":177:201   */\n      tag_136\n        /* \"#utility.yul\":195:200   */\n      dup2\n        /* \"#utility.yul\":177:201   */\n      tag_104\n      jump\t// in\n    tag_136:\n        /* \"#utility.yul\":172:175   */\n      dup3\n        /* \"#utility.yul\":165:202   */\n      mstore\n        /* \"#utility.yul\":90:208   */\n      pop\n      pop\n      jump\t// out\n        /* \"#utility.yul\":214:436   */\n    tag_12:\n        /* \"#utility.yul\":307:311   */\n      0x00\n        /* \"#utility.yul\":345:347   */\n      0x20\n        /* \"#utility.yul\":334:343   */\n      dup3\n        /* \"#utility.yul\":330:348   */\n      add\n        /* \"#utility.yul\":322:348   */\n      swap1\n      pop\n        /* \"#utility.yul\":358:429   */\n      tag_138\n        /* \"#utility.yul\":426:427   */\n      0x00\n        /* \"#utility.yul\":415:424   */\n      dup4\n        /* \"#utility.yul\":411:428   */\n      add\n        /* \"#utility.yul\":402:408   */\n      dup5\n        /* \"#utility.yul\":358:429   */\n      tag_105\n      jump\t// in\n    tag_138:\n        /* \"#utility.yul\":214:436   */\n      swap3\n      swap2\n      pop\n      pop\n      jump\t// out\n        /* \"#utility.yul\":523:640   */\n    tag_107:\n        /* \"#utility.yul\":632:633   */\n      0x00\n        /* \"#utility.yul\":629:630   */\n      dup1\n        /* \"#utility.yul\":622:634   */\n      revert\n        /* \"#utility.yul\":769:891   */\n    tag_109:\n        /* \"#utility.yul\":842:866   */\n      tag_143\n        /* \"#utility.yul\":860:865   */\n      dup2\n        /* \"#utility.yul\":842:866   */\n      tag_104\n      jump\t// in\n    tag_143:\n        /* \"#utility.yul\":835:840   */\n      dup2\n        /* \"#utility.yul\":832:867   */\n      eq\n        /* \"#utility.yul\":822:885   */\n      tag_144\n      jumpi\n        /* \"#utility.yul\":881:882   */\n      0x00\n        /* \"#utility.yul\":878:879   */\n      dup1\n        /* \"#utility.yul\":871:883   */\n      revert\n        /* \"#utility.yul\":822:885   */\n    tag_144:\n        /* \"#utility.yul\":769:891   */\n      pop\n      jump\t// out\n        /* \"#utility.yul\":897:1036   */\n    tag_110:\n        /* \"#utility.yul\":943:948   */\n      0x00\n        /* \"#utility.yul\":981:987   */\n      dup2\n        /* \"#utility.yul\":968:988   */\n      calldataload\n        /* \"#utility.yul\":959:988   */\n      swap1\n      pop\n        /* \"#utility.yul\":997:1030   */\n      tag_146\n        /* \"#utility.yul\":1024:1029   */\n      dup2\n        /* \"#utility.yul\":997:1030   */\n      tag_109\n      jump\t// in\n    tag_146:\n        /* \"#utility.yul\":897:1036   */\n      swap3\n      swap2\n      pop\n      pop\n      jump\t// out\n        /* \"#utility.yul\":1042:1371   */\n    tag_18:\n        /* \"#utility.yul\":1101:1107   */\n      0x00\n        /* \"#utility.yul\":1150:1152   */\n      0x20\n        /* \"#utility.yul\":1138:1147   */\n      dup3\n        /* \"#utility.yul\":1129:1136   */\n      dup5\n        /* \"#utility.yul\":1125:1148   */\n      sub\n        /* \"#utility.yul\":1121:1153   */\n      slt\n        /* \"#utility.yul\":1118:1237   */\n      iszero\n      tag_148\n      jumpi\n        /* \"#utility.yul\":1156:1235   */\n      tag_149\n      tag_107\n      jump\t// in\n    tag_149:\n        /* \"#utility.yul\":1118:1237   */\n    tag_148:\n        /* \"#utility.yul\":1276:1277   */\n      0x00\n        /* \"#utility.yul\":1301:1354   */\n      tag_150\n        /* \"#utility.yul\":1346:1353   */\n      dup5\n        /* \"#utility.yul\":1337:1343   */\n      dup3\n        /* \"#utility.yul\":1326:1335   */\n      dup6\n        /* \"#utility.yul\":1322:1344   */\n      add\n        /* \"#utility.yul\":1301:1354   */\n      tag_110\n      jump\t// in\n    tag_150:\n        /* \"#utility.yul\":1291:1354   */\n      swap2\n      pop\n        /* \"#utility.yul\":1247:1364   */\n      pop\n        /* \"#utility.yul\":1042:1371   */\n      swap3\n      swap2\n      pop\n      pop\n      jump\t// out\n        /* \"#utility.yul\":1377:1503   */\n    tag_111:\n        /* \"#utility.yul\":1414:1421   */\n      0x00\n        /* \"#utility.yul\":1454:1496   */\n      0xffffffffffffffffffffffffffffffffffffffff\n        /* \"#utility.yul\":1447:1452   */\n      dup3\n        /* \"#utility.yul\":1443:1497   */\n      and\n        /* \"#utility.yul\":1432:1497   */\n      swap1\n      pop\n        /* \"#utility.yul\":1377:1503   */\n      swap2\n      swap1\n      pop\n      jump\t// out\n        /* \"#utility.yul\":1509:1605   */\n    tag_112:\n        /* \"#utility.yul\":1546:1553   */\n      0x00\n        /* \"#utility.yul\":1575:1599   */\n      tag_153\n        /* \"#utility.yul\":1593:1598   */\n      dup3\n        /* \"#utility.yul\":1575:1599   */\n      tag_111\n      jump\t// in\n    tag_153:\n        /* \"#utility.yul\":1564:1599   */\n      swap1\n      pop\n        /* \"#utility.yul\":1509:1605   */\n      swap2\n      swap1\n      pop\n      jump\t// out\n        /* \"#utility.yul\":1611:1733   */\n    tag_113:\n        /* \"#utility.yul\":1684:1708   */\n      tag_155\n        /* \"#utility.yul\":1702:1707   */\n      dup2\n        /* \"#utility.yul\":1684:1708   */\n      tag_112\n      jump\t// in\n    tag_155:\n        /* \"#utility.yul\":1677:1682   */\n      dup2\n        /* \"#utility.yul\":1674:1709   */\n      eq\n        /* \"#utility.yul\":1664:1727   */\n      tag_156\n      jumpi\n        /* \"#utility.yul\":1723:1724   */\n      0x00\n        /* \"#utility.yul\":1720:1721   */\n      dup1\n        /* \"#utility.yul\":1713:1725   */\n      revert\n        /* \"#utility.yul\":1664:1727   */\n    tag_156:\n        /* \"#utility.yul\":1611:1733   */\n      pop\n      jump\t// out\n        /* \"#utility.yul\":1739:1878   */\n    tag_114:\n        /* \"#utility.yul\":1785:1790   */\n      0x00\n        /* \"#utility.yul\":1823:1829   */\n      dup2\n        /* \"#utility.yul\":1810:1830   */\n      calldataload\n        /* \"#utility.yul\":1801:1830   */\n      swap1\n      pop\n        /* \"#utility.yul\":1839:1872   */\n      tag_158\n        /* \"#utility.yul\":1866:1871   */\n      dup2\n        /* \"#utility.yul\":1839:1872   */\n      tag_113\n      jump\t// in\n    tag_158:\n        /* \"#utility.yul\":1739:1878   */\n      swap3\n      swap2\n      pop\n      pop\n      jump\t// out\n        /* \"#utility.yul\":1884:2213   */\n    tag_23:\n        /* \"#utility.yul\":1943:1949   */\n      0x00\n        /* \"#utility.yul\":1992:1994   */\n      0x20\n        /* \"#utility.yul\":1980:1989   */\n      dup3\n        /* \"#utility.yul\":1971:1978   */\n      dup5\n        /* \"#utility.yul\":1967:1990   */\n      sub\n        /* \"#utility.yul\":1963:1995   */\n      slt\n        /* \"#utility.yul\":1960:2079   */\n      iszero\n      tag_160\n      jumpi\n        /* \"#utility.yul\":1998:2077   */\n      tag_161\n      tag_107\n      jump\t// in\n    tag_161:\n        /* \"#utility.yul\":1960:2079   */\n    tag_160:\n        /* \"#utility.yul\":2118:2119   */\n      0x00\n        /* \"#utility.yul\":2143:2196   */\n      tag_162\n        /* \"#utility.yul\":2188:2195   */\n      dup5\n        /* \"#utility.yul\":2179:2185   */\n      dup3\n        /* \"#utility.yul\":2168:2177   */\n      dup6\n        /* \"#utility.yul\":2164:2186   */\n      add\n        /* \"#utility.yul\":2143:2196   */\n      tag_114\n      jump\t// in\n    tag_162:\n        /* \"#utility.yul\":2133:2196   */\n      swap2\n      pop\n        /* \"#utility.yul\":2089:2206   */\n      pop\n        /* \"#utility.yul\":1884:2213   */\n      swap3\n      swap2\n      pop\n      pop\n      jump\t// out\n        /* \"#utility.yul\":2219:2772   */\n    tag_26:\n        /* \"#utility.yul\":2396:2400   */\n      0x00\n        /* \"#utility.yul\":2434:2437   */\n      0x80\n        /* \"#utility.yul\":2423:2432   */\n      dup3\n        /* \"#utility.yul\":2419:2438   */\n      add\n        /* \"#utility.yul\":2411:2438   */\n      swap1\n      pop\n        /* \"#utility.yul\":2448:2519   */\n      tag_164\n        /* \"#utility.yul\":2516:2517   */\n      0x00\n        /* \"#utility.yul\":2505:2514   */\n      dup4\n        /* \"#utility.yul\":2501:2518   */\n      add\n        /* \"#utility.yul\":2492:2498   */\n      dup8\n        /* \"#utility.yul\":2448:2519   */\n      tag_105\n      jump\t// in\n    tag_164:\n        /* \"#utility.yul\":2529:2601   */\n      tag_165\n        /* \"#utility.yul\":2597:2599   */\n      0x20\n        /* \"#utility.yul\":2586:2595   */\n      dup4\n        /* \"#utility.yul\":2582:2600   */\n      add\n        /* \"#utility.yul\":2573:2579   */\n      dup7\n        /* \"#utility.yul\":2529:2601   */\n      tag_105\n      jump\t// in\n    tag_165:\n        /* \"#utility.yul\":2611:2683   */\n      tag_166\n        /* \"#utility.yul\":2679:2681   */\n      0x40\n        /* \"#utility.yul\":2668:2677   */\n      dup4\n        /* \"#utility.yul\":2664:2682   */\n      add\n        /* \"#utility.yul\":2655:2661   */\n      dup6\n        /* \"#utility.yul\":2611:2683   */\n      tag_105\n      jump\t// in\n    tag_166:\n        /* \"#utility.yul\":2693:2765   */\n      tag_167\n        /* \"#utility.yul\":2761:2763   */\n      0x60\n        /* \"#utility.yul\":2750:2759   */\n      dup4\n        /* \"#utility.yul\":2746:2764   */\n      add\n        /* \"#utility.yul\":2737:2743   */\n      dup5\n        /* \"#utility.yul\":2693:2765   */\n      tag_105\n      jump\t// in\n    tag_167:\n        /* \"#utility.yul\":2219:2772   */\n      swap6\n      swap5\n      pop\n      pop\n      pop\n      pop\n      pop\n      jump\t// out\n        /* \"#utility.yul\":2778:2877   */\n    tag_115:\n        /* \"#utility.yul\":2830:2836   */\n      0x00\n        /* \"#utility.yul\":2864:2869   */\n      dup2\n        /* \"#utility.yul\":2858:2870   */\n      mload\n        /* \"#utility.yul\":2848:2870   */\n      swap1\n      pop\n        /* \"#utility.yul\":2778:2877   */\n      swap2\n      swap1\n      pop\n      jump\t// out\n        /* \"#utility.yul\":2883:3052   */\n    tag_116:\n        /* \"#utility.yul\":2967:2978   */\n      0x00\n        /* \"#utility.yul\":3001:3007   */\n      dup3\n        /* \"#utility.yul\":2996:2999   */\n      dup3\n        /* \"#utility.yul\":2989:3008   */\n      mstore\n        /* \"#utility.yul\":3041:3045   */\n      0x20\n        /* \"#utility.yul\":3036:3039   */\n      dup3\n        /* \"#utility.yul\":3032:3046   */\n      add\n        /* \"#utility.yul\":3017:3046   */\n      swap1\n      pop\n        /* \"#utility.yul\":2883:3052   */\n      swap3\n      swap2\n      pop\n      pop\n      jump\t// out\n        /* \"#utility.yul\":3058:3197   */\n    tag_117:\n        /* \"#utility.yul\":3147:3153   */\n      dup3\n        /* \"#utility.yul\":3142:3145   */\n      dup2\n        /* \"#utility.yul\":3137:3140   */\n      dup4\n        /* \"#utility.yul\":3131:3154   */\n      mcopy\n        /* \"#utility.yul\":3188:3189   */\n      0x00\n        /* \"#utility.yul\":3179:3185   */\n      dup4\n        /* \"#utility.yul\":3174:3177   */\n      dup4\n        /* \"#utility.yul\":3170:3186   */\n      add\n        /* \"#utility.yul\":3163:3190   */\n      mstore\n        /* \"#utility.yul\":3058:3197   */\n      pop\n      pop\n      pop\n      jump\t// out\n        /* \"#utility.yul\":3203:3305   */\n    tag_118:\n        /* \"#utility.yul\":3244:3250   */\n      0x00\n        /* \"#utility.yul\":3295:3297   */\n      0x1f\n        /* \"#utility.yul\":3291:3298   */\n      not\n        /* \"#utility.yul\":3286:3288   */\n      0x1f\n        /* \"#utility.yul\":3279:3284   */\n      dup4\n        /* \"#utility.yul\":3275:3289   */\n      add\n        /* \"#utility.yul\":3271:3299   */\n      and\n        /* \"#utility.yul\":3261:3299   */\n      swap1\n      pop\n        /* \"#utility.yul\":3203:3305   */\n      swap2\n      swap1\n      pop\n      jump\t// out\n        /* \"#utility.yul\":3311:3688   */\n    tag_119:\n        /* \"#utility.yul\":3399:3402   */\n      0x00\n        /* \"#utility.yul\":3427:3466   */\n      tag_173\n        /* \"#utility.yul\":3460:3465   */\n      dup3\n        /* \"#utility.yul\":3427:3466   */\n      tag_115\n      jump\t// in\n    tag_173:\n        /* \"#utility.yul\":3482:3553   */\n      tag_174\n        /* \"#utility.yul\":3546:3552   */\n      dup2\n        /* \"#utility.yul\":3541:3544   */\n      dup6\n        /* \"#utility.yul\":3482:3553   */\n      tag_116\n      jump\t// in\n    tag_174:\n        /* \"#utility.yul\":3475:3553   */\n      swap4\n      pop\n        /* \"#utility.yul\":3562:3627   */\n      tag_175\n        /* \"#utility.yul\":3620:3626   */\n      dup2\n        /* \"#utility.yul\":3615:3618   */\n      dup6\n        /* \"#utility.yul\":3608:3612   */\n      0x20\n        /* \"#utility.yul\":3601:3606   */\n      dup7\n        /* \"#utility.yul\":3597:3613   */\n      add\n        /* \"#utility.yul\":3562:3627   */\n      tag_117\n      jump\t// in\n    tag_175:\n        /* \"#utility.yul\":3652:3681   */\n      tag_176\n        /* \"#utility.yul\":3674:3680   */\n      dup2\n        /* \"#utility.yul\":3652:3681   */\n      tag_118\n      jump\t// in\n    tag_176:\n        /* \"#utility.yul\":3647:3650   */\n      dup5\n        /* \"#utility.yul\":3643:3682   */\n      add\n        /* \"#utility.yul\":3636:3682   */\n      swap2\n      pop\n        /* \"#utility.yul\":3403:3688   */\n      pop\n        /* \"#utility.yul\":3311:3688   */\n      swap3\n      swap2\n      pop\n      pop\n      jump\t// out\n        /* \"#utility.yul\":3694:4944   */\n    tag_35:\n        /* \"#utility.yul\":4035:4039   */\n      0x00\n        /* \"#utility.yul\":4073:4076   */\n      0xe0\n        /* \"#utility.yul\":4062:4071   */\n      dup3\n        /* \"#utility.yul\":4058:4077   */\n      add\n        /* \"#utility.yul\":4050:4077   */\n      swap1\n      pop\n        /* \"#utility.yul\":4123:4132   */\n      dup2\n        /* \"#utility.yul\":4117:4121   */\n      dup2\n        /* \"#utility.yul\":4113:4133   */\n      sub\n        /* \"#utility.yul\":4109:4110   */\n      0x00\n        /* \"#utility.yul\":4098:4107   */\n      dup4\n        /* \"#utility.yul\":4094:4111   */\n      add\n        /* \"#utility.yul\":4087:4134   */\n      mstore\n        /* \"#utility.yul\":4151:4229   */\n      tag_178\n        /* \"#utility.yul\":4224:4228   */\n      dup2\n        /* \"#utility.yul\":4215:4221   */\n      dup11\n        /* \"#utility.yul\":4151:4229   */\n      tag_119\n      jump\t// in\n    tag_178:\n        /* \"#utility.yul\":4143:4229   */\n      swap1\n      pop\n        /* \"#utility.yul\":4276:4285   */\n      dup2\n        /* \"#utility.yul\":4270:4274   */\n      dup2\n        /* \"#utility.yul\":4266:4286   */\n      sub\n        /* \"#utility.yul\":4261:4263   */\n      0x20\n        /* \"#utility.yul\":4250:4259   */\n      dup4\n        /* \"#utility.yul\":4246:4264   */\n      add\n        /* \"#utility.yul\":4239:4287   */\n      mstore\n        /* \"#utility.yul\":4304:4382   */\n      tag_179\n        /* \"#utility.yul\":4377:4381   */\n      dup2\n        /* \"#utility.yul\":4368:4374   */\n      dup10\n        /* \"#utility.yul\":4304:4382   */\n      tag_119\n      jump\t// in\n    tag_179:\n        /* \"#utility.yul\":4296:4382   */\n      swap1\n      pop\n        /* \"#utility.yul\":4429:4438   */\n      dup2\n        /* \"#utility.yul\":4423:4427   */\n      dup2\n        /* \"#utility.yul\":4419:4439   */\n      sub\n        /* \"#utility.yul\":4414:4416   */\n      0x40\n        /* \"#utility.yul\":4403:4412   */\n      dup4\n        /* \"#utility.yul\":4399:4417   */\n      add\n        /* \"#utility.yul\":4392:4440   */\n      mstore\n        /* \"#utility.yul\":4457:4535   */\n      tag_180\n        /* \"#utility.yul\":4530:4534   */\n      dup2\n        /* \"#utility.yul\":4521:4527   */\n      dup9\n        /* \"#utility.yul\":4457:4535   */\n      tag_119\n      jump\t// in\n    tag_180:\n        /* \"#utility.yul\":4449:4535   */\n      swap1\n      pop\n        /* \"#utility.yul\":4582:4591   */\n      dup2\n        /* \"#utility.yul\":4576:4580   */\n      dup2\n        /* \"#utility.yul\":4572:4592   */\n      sub\n        /* \"#utility.yul\":4567:4569   */\n      0x60\n        /* \"#utility.yul\":4556:4565   */\n      dup4\n        /* \"#utility.yul\":4552:4570   */\n      add\n        /* \"#utility.yul\":4545:4593   */\n      mstore\n        /* \"#utility.yul\":4610:4688   */\n      tag_181\n        /* \"#utility.yul\":4683:4687   */\n      dup2\n        /* \"#utility.yul\":4674:4680   */\n      dup8\n        /* \"#utility.yul\":4610:4688   */\n      tag_119\n      jump\t// in\n    tag_181:\n        /* \"#utility.yul\":4602:4688   */\n      swap1\n      pop\n        /* \"#utility.yul\":4698:4771   */\n      tag_182\n        /* \"#utility.yul\":4766:4769   */\n      0x80\n        /* \"#utility.yul\":4755:4764   */\n      dup4\n        /* \"#utility.yul\":4751:4770   */\n      add\n        /* \"#utility.yul\":4742:4748   */\n      dup7\n        /* \"#utility.yul\":4698:4771   */\n      tag_105\n      jump\t// in\n    tag_182:\n        /* \"#utility.yul\":4781:4854   */\n      tag_183\n        /* \"#utility.yul\":4849:4852   */\n      0xa0\n        /* \"#utility.yul\":4838:4847   */\n      dup4\n        /* \"#utility.yul\":4834:4853   */\n      add\n        /* \"#utility.yul\":4825:4831   */\n      dup6\n        /* \"#utility.yul\":4781:4854   */\n      tag_105\n      jump\t// in\n    tag_183:\n        /* \"#utility.yul\":4864:4937   */\n      tag_184\n        /* \"#utility.yul\":4932:4935   */\n      0xc0\n        /* \"#utility.yul\":4921:4930   */\n      dup4\n        /* \"#utility.yul\":4917:4936   */\n      add\n        /* \"#utility.yul\":4908:4914   */\n      dup5\n        /* \"#utility.yul\":4864:4937   */\n      tag_105\n      jump\t// in\n    tag_184:\n        /* \"#utility.yul\":3694:4944   */\n      swap9\n      swap8\n      pop\n      pop\n      pop\n      pop\n      pop\n      pop\n      pop\n      pop\n      jump\t// out\n        /* \"#utility.yul\":4950:5130   */\n    tag_120:\n        /* \"#utility.yul\":4998:5075   */\n      0x4e487b7100000000000000000000000000000000000000000000000000000000\n        /* \"#utility.yul\":4995:4996   */\n      0x00\n        /* \"#utility.yul\":4988:5076   */\n      mstore\n        /* \"#utility.yul\":5095:5099   */\n      0x11\n        /* \"#utility.yul\":5092:5093   */\n      0x04\n        /* \"#utility.yul\":5085:5100   */\n      mstore\n        /* \"#utility.yul\":5119:5123   */\n      0x24\n        /* \"#utility.yul\":5116:5117   */\n      0x00\n        /* \"#utility.yul\":5109:5124   */\n      revert\n        /* \"#utility.yul\":5136:5546   */\n    tag_43:\n        /* \"#utility.yul\":5176:5183   */\n      0x00\n        /* \"#utility.yul\":5199:5219   */\n      tag_187\n        /* \"#utility.yul\":5217:5218   */\n      dup3\n        /* \"#utility.yul\":5199:5219   */\n      tag_104\n      jump\t// in\n    tag_187:\n        /* \"#utility.yul\":5194:5219   */\n      swap2\n      pop\n        /* \"#utility.yul\":5233:5253   */\n      tag_188\n        /* \"#utility.yul\":5251:5252   */\n      dup4\n        /* \"#utility.yul\":5233:5253   */\n      tag_104\n      jump\t// in\n    tag_188:\n        /* \"#utility.yul\":5228:5253   */\n      swap3\n      pop\n        /* \"#utility.yul\":5288:5289   */\n      dup3\n        /* \"#utility.yul\":5285:5286   */\n      dup3\n        /* \"#utility.yul\":5281:5290   */\n      mul\n        /* \"#utility.yul\":5310:5340   */\n      tag_189\n        /* \"#utility.yul\":5328:5339   */\n      dup2\n        /* \"#utility.yul\":5310:5340   */\n      tag_104\n      jump\t// in\n    tag_189:\n        /* \"#utility.yul\":5299:5340   */\n      swap2\n      pop\n        /* \"#utility.yul\":5489:5490   */\n      dup3\n        /* \"#utility.yul\":5480:5487   */\n      dup3\n        /* \"#utility.yul\":5476:5491   */\n      div\n        /* \"#utility.yul\":5473:5474   */\n      dup5\n        /* \"#utility.yul\":5470:5492   */\n      eq\n        /* \"#utility.yul\":5450:5451   */\n      dup4\n        /* \"#utility.yul\":5443:5452   */\n      iszero\n        /* \"#utility.yul\":5423:5506   */\n      or\n        /* \"#utility.yul\":5400:5539   */\n      tag_190\n      jumpi\n        /* \"#utility.yul\":5519:5537   */\n      tag_191\n      tag_120\n      jump\t// in\n    tag_191:\n        /* \"#utility.yul\":5400:5539   */\n    tag_190:\n        /* \"#utility.yul\":5184:5546   */\n      pop\n        /* \"#utility.yul\":5136:5546   */\n      swap3\n      swap2\n      pop\n      pop\n      jump\t// out\n        /* \"#utility.yul\":5552:5732   */\n    tag_121:\n        /* \"#utility.yul\":5600:5677   */\n      0x4e487b7100000000000000000000000000000000000000000000000000000000\n        /* \"#utility.yul\":5597:5598   */\n      0x00\n        /* \"#utility.yul\":5590:5678   */\n      mstore\n        /* \"#utility.yul\":5697:5701   */\n      0x12\n        /* \"#utility.yul\":5694:5695   */\n      0x04\n        /* \"#utility.yul\":5687:5702   */\n      mstore\n        /* \"#utility.yul\":5721:5725   */\n      0x24\n        /* \"#utility.yul\":5718:5719   */\n      0x00\n        /* \"#utility.yul\":5711:5726   */\n      revert\n        /* \"#utility.yul\":5738:5923   */\n    tag_45:\n        /* \"#utility.yul\":5778:5779   */\n      0x00\n        /* \"#utility.yul\":5795:5815   */\n      tag_194\n        /* \"#utility.yul\":5813:5814   */\n      dup3\n        /* \"#utility.yul\":5795:5815   */\n      tag_104\n      jump\t// in\n    tag_194:\n        /* \"#utility.yul\":5790:5815   */\n      swap2\n      pop\n        /* \"#utility.yul\":5829:5849   */\n      tag_195\n        /* \"#utility.yul\":5847:5848   */\n      dup4\n        /* \"#utility.yul\":5829:5849   */\n      tag_104\n      jump\t// in\n    tag_195:\n        /* \"#utility.yul\":5824:5849   */\n      swap3\n      pop\n        /* \"#utility.yul\":5868:5869   */\n      dup3\n        /* \"#utility.yul\":5858:5893   */\n      tag_196\n      jumpi\n        /* \"#utility.yul\":5873:5891   */\n      tag_197\n      tag_121\n      jump\t// in\n    tag_197:\n        /* \"#utility.yul\":5858:5893   */\n    tag_196:\n        /* \"#utility.yul\":5915:5916   */\n      dup3\n        /* \"#utility.yul\":5912:5913   */\n      dup3\n        /* \"#utility.yul\":5908:5917   */\n      div\n        /* \"#utility.yul\":5903:5917   */\n      swap1\n      pop\n        /* \"#utility.yul\":5738:5923   */\n      swap3\n      swap2\n      pop\n      pop\n      jump\t// out\n        /* \"#utility.yul\":5929:6096   */\n    tag_122:\n        /* \"#utility.yul\":6069:6088   */\n      0x496e76616c69642063616e646964617465000000000000000000000000000000\n        /* \"#utility.yul\":6065:6066   */\n      0x00\n        /* \"#utility.yul\":6057:6063   */\n      dup3\n        /* \"#utility.yul\":6053:6067   */\n      add\n        /* \"#utility.yul\":6046:6089   */\n      mstore\n        /* \"#utility.yul\":5929:6096   */\n      pop\n      jump\t// out\n        /* \"#utility.yul\":6102:6468   */\n    tag_123:\n        /* \"#utility.yul\":6244:6247   */\n      0x00\n        /* \"#utility.yul\":6265:6332   */\n      tag_200\n        /* \"#utility.yul\":6329:6331   */\n      0x11\n        /* \"#utility.yul\":6324:6327   */\n      dup4\n        /* \"#utility.yul\":6265:6332   */\n      tag_116\n      jump\t// in\n    tag_200:\n        /* \"#utility.yul\":6258:6332   */\n      swap2\n      pop\n        /* \"#utility.yul\":6341:6434   */\n      tag_201\n        /* \"#utility.yul\":6430:6433   */\n      dup3\n        /* \"#utility.yul\":6341:6434   */\n      tag_122\n      jump\t// in\n    tag_201:\n        /* \"#utility.yul\":6459:6461   */\n      0x20\n        /* \"#utility.yul\":6454:6457   */\n      dup3\n        /* \"#utility.yul\":6450:6462   */\n      add\n        /* \"#utility.yul\":6443:6462   */\n      swap1\n      pop\n        /* \"#utility.yul\":6102:6468   */\n      swap2\n      swap1\n      pop\n      jump\t// out\n        /* \"#utility.yul\":6474:6893   */\n    tag_54:\n        /* \"#utility.yul\":6640:6644   */\n      0x00\n        /* \"#utility.yul\":6678:6680   */\n      0x20\n        /* \"#utility.yul\":6667:6676   */\n      dup3\n        /* \"#utility.yul\":6663:6681   */\n      add\n        /* \"#utility.yul\":6655:6681   */\n      swap1\n      pop\n        /* \"#utility.yul\":6727:6736   */\n      dup2\n        /* \"#utility.yul\":6721:6725   */\n      dup2\n        /* \"#utility.yul\":6717:6737   */\n      sub\n        /* \"#utility.yul\":6713:6714   */\n      0x00\n        /* \"#utility.yul\":6702:6711   */\n      dup4\n        /* \"#utility.yul\":6698:6715   */\n      add\n        /* \"#utility.yul\":6691:6738   */\n      mstore\n        /* \"#utility.yul\":6755:6886   */\n      tag_203\n        /* \"#utility.yul\":6881:6885   */\n      dup2\n        /* \"#utility.yul\":6755:6886   */\n      tag_123\n      jump\t// in\n    tag_203:\n        /* \"#utility.yul\":6747:6886   */\n      swap1\n      pop\n        /* \"#utility.yul\":6474:6893   */\n      swap2\n      swap1\n      pop\n      jump\t// out\n        /* \"#utility.yul\":6899:7060   */\n    tag_124:\n        /* \"#utility.yul\":7039:7052   */\n      0x496e76616c696420426574000000000000000000000000000000000000000000\n        /* \"#utility.yul\":7035:7036   */\n      0x00\n        /* \"#utility.yul\":7027:7033   */\n      dup3\n        /* \"#utility.yul\":7023:7037   */\n      add\n        /* \"#utility.yul\":7016:7053   */\n      mstore\n        /* \"#utility.yul\":6899:7060   */\n      pop\n      jump\t// out\n        /* \"#utility.yul\":7066:7432   */\n    tag_125:\n        /* \"#utility.yul\":7208:7211   */\n      0x00\n        /* \"#utility.yul\":7229:7296   */\n      tag_206\n        /* \"#utility.yul\":7293:7295   */\n      0x0b\n        /* \"#utility.yul\":7288:7291   */\n      dup4\n        /* \"#utility.yul\":7229:7296   */\n      tag_116\n      jump\t// in\n    tag_206:\n        /* \"#utility.yul\":7222:7296   */\n      swap2\n      pop\n        /* \"#utility.yul\":7305:7398   */\n      tag_207\n        /* \"#utility.yul\":7394:7397   */\n      dup3\n        /* \"#utility.yul\":7305:7398   */\n      tag_124\n      jump\t// in\n    tag_207:\n        /* \"#utility.yul\":7423:7425   */\n      0x20\n        /* \"#utility.yul\":7418:7421   */\n      dup3\n        /* \"#utility.yul\":7414:7426   */\n      add\n        /* \"#utility.yul\":7407:7426   */\n      swap1\n      pop\n        /* \"#utility.yul\":7066:7432   */\n      swap2\n      swap1\n      pop\n      jump\t// out\n        /* \"#utility.yul\":7438:7857   */\n    tag_57:\n        /* \"#utility.yul\":7604:7608   */\n      0x00\n        /* \"#utility.yul\":7642:7644   */\n      0x20\n        /* \"#utility.yul\":7631:7640   */\n      dup3\n        /* \"#utility.yul\":7627:7645   */\n      add\n        /* \"#utility.yul\":7619:7645   */\n      swap1\n      pop\n        /* \"#utility.yul\":7691:7700   */\n      dup2\n        /* \"#utility.yul\":7685:7689   */\n      dup2\n        /* \"#utility.yul\":7681:7701   */\n      sub\n        /* \"#utility.yul\":7677:7678   */\n      0x00\n        /* \"#utility.yul\":7666:7675   */\n      dup4\n        /* \"#utility.yul\":7662:7679   */\n      add\n        /* \"#utility.yul\":7655:7702   */\n      mstore\n        /* \"#utility.yul\":7719:7850   */\n      tag_209\n        /* \"#utility.yul\":7845:7849   */\n      dup2\n        /* \"#utility.yul\":7719:7850   */\n      tag_125\n      jump\t// in\n    tag_209:\n        /* \"#utility.yul\":7711:7850   */\n      swap1\n      pop\n        /* \"#utility.yul\":7438:7857   */\n      swap2\n      swap1\n      pop\n      jump\t// out\n        /* \"#utility.yul\":7863:8027   */\n    tag_126:\n        /* \"#utility.yul\":8003:8019   */\n      0x4469737075746520636c6f736564000000000000000000000000000000000000\n        /* \"#utility.yul\":7999:8000   */\n      0x00\n        /* \"#utility.yul\":7991:7997   */\n      dup3\n        /* \"#utility.yul\":7987:8001   */\n      add\n        /* \"#utility.yul\":7980:8020   */\n      mstore\n        /* \"#utility.yul\":7863:8027   */\n      pop\n      jump\t// out\n        /* \"#utility.yul\":8033:8399   */\n    tag_127:\n        /* \"#utility.yul\":8175:8178   */\n      0x00\n        /* \"#utility.yul\":8196:8263   */\n      tag_212\n        /* \"#utility.yul\":8260:8262   */\n      0x0e\n        /* \"#utility.yul\":8255:8258   */\n      dup4\n        /* \"#utility.yul\":8196:8263   */\n      tag_116\n      jump\t// in\n    tag_212:\n        /* \"#utility.yul\":8189:8263   */\n      swap2\n      pop\n        /* \"#utility.yul\":8272:8365   */\n      tag_213\n        /* \"#utility.yul\":8361:8364   */\n      dup3\n        /* \"#utility.yul\":8272:8365   */\n      tag_126\n      jump\t// in\n    tag_213:\n        /* \"#utility.yul\":8390:8392   */\n      0x20\n        /* \"#utility.yul\":8385:8388   */\n      dup3\n        /* \"#utility.yul\":8381:8393   */\n      add\n        /* \"#utility.yul\":8374:8393   */\n      swap1\n      pop\n        /* \"#utility.yul\":8033:8399   */\n      swap2\n      swap1\n      pop\n      jump\t// out\n        /* \"#utility.yul\":8405:8824   */\n    tag_60:\n        /* \"#utility.yul\":8571:8575   */\n      0x00\n        /* \"#utility.yul\":8609:8611   */\n      0x20\n        /* \"#utility.yul\":8598:8607   */\n      dup3\n        /* \"#utility.yul\":8594:8612   */\n      add\n        /* \"#utility.yul\":8586:8612   */\n      swap1\n      pop\n        /* \"#utility.yul\":8658:8667   */\n      dup2\n        /* \"#utility.yul\":8652:8656   */\n      dup2\n        /* \"#utility.yul\":8648:8668   */\n      sub\n        /* \"#utility.yul\":8644:8645   */\n      0x00\n        /* \"#utility.yul\":8633:8642   */\n      dup4\n        /* \"#utility.yul\":8629:8646   */\n      add\n        /* \"#utility.yul\":8622:8669   */\n      mstore\n        /* \"#utility.yul\":8686:8817   */\n      tag_215\n        /* \"#utility.yul\":8812:8816   */\n      dup2\n        /* \"#utility.yul\":8686:8817   */\n      tag_127\n      jump\t// in\n    tag_215:\n        /* \"#utility.yul\":8678:8817   */\n      swap1\n      pop\n        /* \"#utility.yul\":8405:8824   */\n      swap2\n      swap1\n      pop\n      jump\t// out\n        /* \"#utility.yul\":8830:9021   */\n    tag_65:\n        /* \"#utility.yul\":8870:8873   */\n      0x00\n        /* \"#utility.yul\":8889:8909   */\n      tag_217\n        /* \"#utility.yul\":8907:8908   */\n      dup3\n        /* \"#utility.yul\":8889:8909   */\n      tag_104\n      jump\t// in\n    tag_217:\n        /* \"#utility.yul\":8884:8909   */\n      swap2\n      pop\n        /* \"#utility.yul\":8923:8943   */\n      tag_218\n        /* \"#utility.yul\":8941:8942   */\n      dup4\n        /* \"#utility.yul\":8923:8943   */\n      tag_104\n      jump\t// in\n    tag_218:\n        /* \"#utility.yul\":8918:8943   */\n      swap3\n      pop\n        /* \"#utility.yul\":8966:8967   */\n      dup3\n        /* \"#utility.yul\":8963:8964   */\n      dup3\n        /* \"#utility.yul\":8959:8968   */\n      add\n        /* \"#utility.yul\":8952:8968   */\n      swap1\n      pop\n        /* \"#utility.yul\":8987:8990   */\n      dup1\n        /* \"#utility.yul\":8984:8985   */\n      dup3\n        /* \"#utility.yul\":8981:8991   */\n      gt\n        /* \"#utility.yul\":8978:9014   */\n      iszero\n      tag_219\n      jumpi\n        /* \"#utility.yul\":8994:9012   */\n      tag_220\n      tag_120\n      jump\t// in\n    tag_220:\n        /* \"#utility.yul\":8978:9014   */\n    tag_219:\n        /* \"#utility.yul\":8830:9021   */\n      swap3\n      swap2\n      pop\n      pop\n      jump\t// out\n        /* \"#utility.yul\":9027:9193   */\n    tag_128:\n        /* \"#utility.yul\":9167:9185   */\n      0x496e76616c69642063616e646964616500000000000000000000000000000000\n        /* \"#utility.yul\":9163:9164   */\n      0x00\n        /* \"#utility.yul\":9155:9161   */\n      dup3\n        /* \"#utility.yul\":9151:9165   */\n      add\n        /* \"#utility.yul\":9144:9186   */\n      mstore\n        /* \"#utility.yul\":9027:9193   */\n      pop\n      jump\t// out\n        /* \"#utility.yul\":9199:9565   */\n    tag_129:\n        /* \"#utility.yul\":9341:9344   */\n      0x00\n        /* \"#utility.yul\":9362:9429   */\n      tag_223\n        /* \"#utility.yul\":9426:9428   */\n      0x10\n        /* \"#utility.yul\":9421:9424   */\n      dup4\n        /* \"#utility.yul\":9362:9429   */\n      tag_116\n      jump\t// in\n    tag_223:\n        /* \"#utility.yul\":9355:9429   */\n      swap2\n      pop\n        /* \"#utility.yul\":9438:9531   */\n      tag_224\n        /* \"#utility.yul\":9527:9530   */\n      dup3\n        /* \"#utility.yul\":9438:9531   */\n      tag_128\n      jump\t// in\n    tag_224:\n        /* \"#utility.yul\":9556:9558   */\n      0x20\n        /* \"#utility.yul\":9551:9554   */\n      dup3\n        /* \"#utility.yul\":9547:9559   */\n      add\n        /* \"#utility.yul\":9540:9559   */\n      swap1\n      pop\n        /* \"#utility.yul\":9199:9565   */\n      swap2\n      swap1\n      pop\n      jump\t// out\n        /* \"#utility.yul\":9571:9990   */\n    tag_71:\n        /* \"#utility.yul\":9737:9741   */\n      0x00\n        /* \"#utility.yul\":9775:9777   */\n      0x20\n        /* \"#utility.yul\":9764:9773   */\n      dup3\n        /* \"#utility.yul\":9760:9778   */\n      add\n        /* \"#utility.yul\":9752:9778   */\n      swap1\n      pop\n        /* \"#utility.yul\":9824:9833   */\n      dup2\n        /* \"#utility.yul\":9818:9822   */\n      dup2\n        /* \"#utility.yul\":9814:9834   */\n      sub\n        /* \"#utility.yul\":9810:9811   */\n      0x00\n        /* \"#utility.yul\":9799:9808   */\n      dup4\n        /* \"#utility.yul\":9795:9812   */\n      add\n        /* \"#utility.yul\":9788:9835   */\n      mstore\n        /* \"#utility.yul\":9852:9983   */\n      tag_226\n        /* \"#utility.yul\":9978:9982   */\n      dup2\n        /* \"#utility.yul\":9852:9983   */\n      tag_129\n      jump\t// in\n    tag_226:\n        /* \"#utility.yul\":9844:9983   */\n      swap1\n      pop\n        /* \"#utility.yul\":9571:9990   */\n      swap2\n      swap1\n      pop\n      jump\t// out\n        /* \"#utility.yul\":9996:10161   */\n    tag_130:\n        /* \"#utility.yul\":10136:10153   */\n      0x446973707574656420636c6f7365640000000000000000000000000000000000\n        /* \"#utility.yul\":10132:10133   */\n      0x00\n        /* \"#utility.yul\":10124:10130   */\n      dup3\n        /* \"#utility.yul\":10120:10134   */\n      add\n        /* \"#utility.yul\":10113:10154   */\n      mstore\n        /* \"#utility.yul\":9996:10161   */\n      pop\n      jump\t// out\n        /* \"#utility.yul\":10167:10533   */\n    tag_131:\n        /* \"#utility.yul\":10309:10312   */\n      0x00\n        /* \"#utility.yul\":10330:10397   */\n      tag_229\n        /* \"#utility.yul\":10394:10396   */\n      0x0f\n        /* \"#utility.yul\":10389:10392   */\n      dup4\n        /* \"#utility.yul\":10330:10397   */\n      tag_116\n      jump\t// in\n    tag_229:\n        /* \"#utility.yul\":10323:10397   */\n      swap2\n      pop\n        /* \"#utility.yul\":10406:10499   */\n      tag_230\n        /* \"#utility.yul\":10495:10498   */\n      dup3\n        /* \"#utility.yul\":10406:10499   */\n      tag_130\n      jump\t// in\n    tag_230:\n        /* \"#utility.yul\":10524:10526   */\n      0x20\n        /* \"#utility.yul\":10519:10522   */\n      dup3\n        /* \"#utility.yul\":10515:10527   */\n      add\n        /* \"#utility.yul\":10508:10527   */\n      swap1\n      pop\n        /* \"#utility.yul\":10167:10533   */\n      swap2\n      swap1\n      pop\n      jump\t// out\n        /* \"#utility.yul\":10539:10958   */\n    tag_77:\n        /* \"#utility.yul\":10705:10709   */\n      0x00\n        /* \"#utility.yul\":10743:10745   */\n      0x20\n        /* \"#utility.yul\":10732:10741   */\n      dup3\n        /* \"#utility.yul\":10728:10746   */\n      add\n        /* \"#utility.yul\":10720:10746   */\n      swap1\n      pop\n        /* \"#utility.yul\":10792:10801   */\n      dup2\n        /* \"#utility.yul\":10786:10790   */\n      dup2\n        /* \"#utility.yul\":10782:10802   */\n      sub\n        /* \"#utility.yul\":10778:10779   */\n      0x00\n        /* \"#utility.yul\":10767:10776   */\n      dup4\n        /* \"#utility.yul\":10763:10780   */\n      add\n        /* \"#utility.yul\":10756:10803   */\n      mstore\n        /* \"#utility.yul\":10820:10951   */\n      tag_232\n        /* \"#utility.yul\":10946:10950   */\n      dup2\n        /* \"#utility.yul\":10820:10951   */\n      tag_131\n      jump\t// in\n    tag_232:\n        /* \"#utility.yul\":10812:10951   */\n      swap1\n      pop\n        /* \"#utility.yul\":10539:10958   */\n      swap2\n      swap1\n      pop\n      jump\t// out\n        /* \"#utility.yul\":10964:11144   */\n    tag_132:\n        /* \"#utility.yul\":11012:11089   */\n      0x4e487b7100000000000000000000000000000000000000000000000000000000\n        /* \"#utility.yul\":11009:11010   */\n      0x00\n        /* \"#utility.yul\":11002:11090   */\n      mstore\n        /* \"#utility.yul\":11109:11113   */\n      0x22\n        /* \"#utility.yul\":11106:11107   */\n      0x04\n        /* \"#utility.yul\":11099:11114   */\n      mstore\n        /* \"#utility.yul\":11133:11137   */\n      0x24\n        /* \"#utility.yul\":11130:11131   */\n      0x00\n        /* \"#utility.yul\":11123:11138   */\n      revert\n        /* \"#utility.yul\":11150:11470   */\n    tag_84:\n        /* \"#utility.yul\":11194:11200   */\n      0x00\n        /* \"#utility.yul\":11231:11232   */\n      0x02\n        /* \"#utility.yul\":11225:11229   */\n      dup3\n        /* \"#utility.yul\":11221:11233   */\n      div\n        /* \"#utility.yul\":11211:11233   */\n      swap1\n      pop\n        /* \"#utility.yul\":11278:11279   */\n      0x01\n        /* \"#utility.yul\":11272:11276   */\n      dup3\n        /* \"#utility.yul\":11268:11280   */\n      and\n        /* \"#utility.yul\":11299:11317   */\n      dup1\n        /* \"#utility.yul\":11289:11370   */\n      tag_235\n      jumpi\n        /* \"#utility.yul\":11355:11359   */\n      0x7f\n        /* \"#utility.yul\":11347:11353   */\n      dup3\n        /* \"#utility.yul\":11343:11360   */\n      and\n        /* \"#utility.yul\":11333:11360   */\n      swap2\n      pop\n        /* \"#utility.yul\":11289:11370   */\n    tag_235:\n        /* \"#utility.yul\":11417:11419   */\n      0x20\n        /* \"#utility.yul\":11409:11415   */\n      dup3\n        /* \"#utility.yul\":11406:11420   */\n      lt\n        /* \"#utility.yul\":11386:11404   */\n      dup2\n        /* \"#utility.yul\":11383:11421   */\n      sub\n        /* \"#utility.yul\":11380:11464   */\n      tag_236\n      jumpi\n        /* \"#utility.yul\":11436:11454   */\n      tag_237\n      tag_132\n      jump\t// in\n    tag_237:\n        /* \"#utility.yul\":11380:11464   */\n    tag_236:\n        /* \"#utility.yul\":11201:11470   */\n      pop\n        /* \"#utility.yul\":11150:11470   */\n      swap2\n      swap1\n      pop\n      jump\t// out\n\n    auxdata: 0xa26469706673582212205a22c36f5de16c69d084ebed92a9cb42f9222c409e80547e955000dfce8ce19f64736f6c634300081a0033\n}\n",
				"bytecode": {
					"linkReferences": {},
					"object": "60806040526103e8600955348015610015575f80fd5b503360085f6101000a81548173ffffffffffffffffffffffffffffffffffffffff021916908373ffffffffffffffffffffffffffffffffffffffff1602179055506040518060e001604052806040518060400160405280600c81526020017f446f6e616c74205472756d70000000000000000000000000000000000000000081525081526020016040518060400160405280600d81526020017f4b616d616c61204861727269730000000000000000000000000000000000000081525081526020016040518060800160405280605581526020016113e86055913981526020016040518060800160405280605c815260200161138c605c913981526020015f81526020015f81526020015f8152505f80820151815f01908161013791906103da565b50602082015181600101908161014d91906103da565b50604082015181600201908161016391906103da565b50606082015181600301908161017991906103da565b506080820151816004015560a0820151816005015560c082015181600601559050506104a9565b5f81519050919050565b7f4e487b71000000000000000000000000000000000000000000000000000000005f52604160045260245ffd5b7f4e487b71000000000000000000000000000000000000000000000000000000005f52602260045260245ffd5b5f600282049050600182168061021b57607f821691505b60208210810361022e5761022d6101d7565b5b50919050565b5f819050815f5260205f209050919050565b5f6020601f8301049050919050565b5f82821b905092915050565b5f600883026102907fffffffffffffffffffffffffffffffffffffffffffffffffffffffffffffffff82610255565b61029a8683610255565b95508019841693508086168417925050509392505050565b5f819050919050565b5f819050919050565b5f6102de6102d96102d4846102b2565b6102bb565b6102b2565b9050919050565b5f819050919050565b6102f7836102c4565b61030b610303826102e5565b848454610261565b825550505050565b5f90565b61031f610313565b61032a8184846102ee565b505050565b5b8181101561034d576103425f82610317565b600181019050610330565b5050565b601f8211156103925761036381610234565b61036c84610246565b8101602085101561037b578190505b61038f61038785610246565b83018261032f565b50505b505050565b5f82821c905092915050565b5f6103b25f1984600802610397565b1980831691505092915050565b5f6103ca83836103a3565b9150826002028217905092915050565b6103e3826101a0565b67ffffffffffffffff8111156103fc576103fb6101aa565b5b6104068254610204565b610411828285610351565b5f60209050601f831160018114610442575f8415610430578287015190505b61043a85826103bf565b8655506104a1565b601f19841661045086610234565b5f5b8281101561047757848901518255600182019150602085019450602081019050610452565b868310156104945784890151610490601f8916826103a3565b8355505b6001600288020188555050505b505050505050565b610ed6806104b65f395ff3fe608060405260043610610054575f3560e01c8063121de3f6146100585780634e71d92d146100825780637365870b1461009857806393bebee8146100b4578063d353a1cb146100f3578063f240f7c31461011b575b5f80fd5b348015610063575f80fd5b5061006c61014b565b604051610079919061090a565b60405180910390f35b34801561008d575f80fd5b50610096610151565b005b6100b260048036038101906100ad9190610951565b6102df565b005b3480156100bf575f80fd5b506100da60048036038101906100d591906109d6565b610487565b6040516100ea9493929190610a01565b60405180910390f35b3480156100fe575f80fd5b5061011960048036038101906101149190610951565b6104b3565b005b348015610126575f80fd5b5061012f610688565b6040516101429796959493929190610ab4565b60405180910390f35b600a5481565b5f60075f3373ffffffffffffffffffffffffffffffffffffffff1673ffffffffffffffffffffffffffffffffffffffff1681526020019081526020015f206040518060800160405290815f8201548152602001600182015481526020016002820154815260200160038201548152505090505f80600601541180156101dd575080602001515f60060154145b80156101ec57505f8160600151145b6101f4575f80fd5b5f60015f600601541461020b575f60050154610211565b5f600401545b90505f81612710845f01516102269190610b6a565b6102309190610bd8565b90505f61271082600a546102449190610b6a565b61024e9190610bd8565b90508060075f3373ffffffffffffffffffffffffffffffffffffffff1673ffffffffffffffffffffffffffffffffffffffff1681526020019081526020015f20600301819055503373ffffffffffffffffffffffffffffffffffffffff166108fc8290811502906040515f60405180830381858888f193505050501580156102d8573d5f803e3d5ffd5b5050505050565b60018114806102ee5750600281145b61032d576040517f08c379a000000000000000000000000000000000000000000000000000000000815260040161032490610c52565b60405180910390fd5b5f341161036f576040517f08c379a000000000000000000000000000000000000000000000000000000000815260040161036690610cba565b60405180910390fd5b5f8060060154146103b5576040517f08c379a00000000000000000000000000000000000000000000000000000000081526004016103ac90610d22565b60405180910390fd5b6103bd6108ce565b34815f01818152505081816020018181525050428160400181815250508060075f3373ffffffffffffffffffffffffffffffffffffffff1673ffffffffffffffffffffffffffffffffffffffff1681526020019081526020015f205f820151815f01556020820151816001015560408201518160020155606082015181600301559050506001820361046857345f6004015f82825461045c9190610d40565b92505081905550610483565b345f6005015f82825461047b9190610d40565b925050819055505b5050565b6007602052805f5260405f205f91509050805f0154908060010154908060020154908060030154905084565b60085f9054906101000a900473ffffffffffffffffffffffffffffffffffffffff1673ffffffffffffffffffffffffffffffffffffffff163373ffffffffffffffffffffffffffffffffffffffff1614610542576040517f08c379a000000000000000000000000000000000000000000000000000000000815260040161053990610dbd565b60405180910390fd5b60018114806105515750600281145b610590576040517f08c379a000000000000000000000000000000000000000000000000000000000815260040161058790610c52565b60405180910390fd5b5f8060060154146105d6576040517f08c379a00000000000000000000000000000000000000000000000000000000081526004016105cd90610e25565b60405180910390fd5b805f600601819055505f80600501545f600401546105f49190610d40565b90505f612710600954836106089190610b6a565b6106129190610bd8565b905080915081600a8190555060085f9054906101000a900473ffffffffffffffffffffffffffffffffffffffff1673ffffffffffffffffffffffffffffffffffffffff166108fc8290811502906040515f60405180830381858888f19350505050158015610682573d5f803e3d5ffd5b50505050565b5f805f01805461069790610e70565b80601f01602080910402602001604051908101604052809291908181526020018280546106c390610e70565b801561070e5780601f106106e55761010080835404028352916020019161070e565b820191905f5260205f20905b8154815290600101906020018083116106f157829003601f168201915b50505050509080600101805461072390610e70565b80601f016020809104026020016040519081016040528092919081815260200182805461074f90610e70565b801561079a5780601f106107715761010080835404028352916020019161079a565b820191905f5260205f20905b81548152906001019060200180831161077d57829003601f168201915b5050505050908060020180546107af90610e70565b80601f01602080910402602001604051908101604052809291908181526020018280546107db90610e70565b80156108265780601f106107fd57610100808354040283529160200191610826565b820191905f5260205f20905b81548152906001019060200180831161080957829003601f168201915b50505050509080600301805461083b90610e70565b80601f016020809104026020016040519081016040528092919081815260200182805461086790610e70565b80156108b25780601f10610889576101008083540402835291602001916108b2565b820191905f5260205f20905b81548152906001019060200180831161089557829003601f168201915b5050505050908060040154908060050154908060060154905087565b60405180608001604052805f81526020015f81526020015f81526020015f81525090565b5f819050919050565b610904816108f2565b82525050565b5f60208201905061091d5f8301846108fb565b92915050565b5f80fd5b610930816108f2565b811461093a575f80fd5b50565b5f8135905061094b81610927565b92915050565b5f6020828403121561096657610965610923565b5b5f6109738482850161093d565b91505092915050565b5f73ffffffffffffffffffffffffffffffffffffffff82169050919050565b5f6109a58261097c565b9050919050565b6109b58161099b565b81146109bf575f80fd5b50565b5f813590506109d0816109ac565b92915050565b5f602082840312156109eb576109ea610923565b5b5f6109f8848285016109c2565b91505092915050565b5f608082019050610a145f8301876108fb565b610a2160208301866108fb565b610a2e60408301856108fb565b610a3b60608301846108fb565b95945050505050565b5f81519050919050565b5f82825260208201905092915050565b8281835e5f83830152505050565b5f601f19601f8301169050919050565b5f610a8682610a44565b610a908185610a4e565b9350610aa0818560208601610a5e565b610aa981610a6c565b840191505092915050565b5f60e0820190508181035f830152610acc818a610a7c565b90508181036020830152610ae08189610a7c565b90508181036040830152610af48188610a7c565b90508181036060830152610b088187610a7c565b9050610b1760808301866108fb565b610b2460a08301856108fb565b610b3160c08301846108fb565b98975050505050505050565b7f4e487b71000000000000000000000000000000000000000000000000000000005f52601160045260245ffd5b5f610b74826108f2565b9150610b7f836108f2565b9250828202610b8d816108f2565b91508282048414831517610ba457610ba3610b3d565b5b5092915050565b7f4e487b71000000000000000000000000000000000000000000000000000000005f52601260045260245ffd5b5f610be2826108f2565b9150610bed836108f2565b925082610bfd57610bfc610bab565b5b828204905092915050565b7f496e76616c69642063616e6469646174650000000000000000000000000000005f82015250565b5f610c3c601183610a4e565b9150610c4782610c08565b602082019050919050565b5f6020820190508181035f830152610c6981610c30565b9050919050565b7f496e76616c6964204265740000000000000000000000000000000000000000005f82015250565b5f610ca4600b83610a4e565b9150610caf82610c70565b602082019050919050565b5f6020820190508181035f830152610cd181610c98565b9050919050565b7f4469737075746520636c6f7365640000000000000000000000000000000000005f82015250565b5f610d0c600e83610a4e565b9150610d1782610cd8565b602082019050919050565b5f6020820190508181035f830152610d3981610d00565b9050919050565b5f610d4a826108f2565b9150610d55836108f2565b9250828201905080821115610d6d57610d6c610b3d565b5b92915050565b7f496e76616c69642063616e6469646165000000000000000000000000000000005f82015250565b5f610da7601083610a4e565b9150610db282610d73565b602082019050919050565b5f6020820190508181035f830152610dd481610d9b565b9050919050565b7f446973707574656420636c6f73656400000000000000000000000000000000005f82015250565b5f610e0f600f83610a4e565b9150610e1a82610ddb565b602082019050919050565b5f6020820190508181035f830152610e3c81610e03565b9050919050565b7f4e487b71000000000000000000000000000000000000000000000000000000005f52602260045260245ffd5b5f6002820490506001821680610e8757607f821691505b602082108103610e9a57610e99610e43565b5b5091905056fea26469706673582212205a22c36f5de16c69d084ebed92a9cb42f9222c409e80547e955000dfce8ce19f64736f6c634300081a003368747470733a2f2f656e637279707465642d74626e302e677374617469632e636f6d2f696d616765733f713d74626e3a414e6439476351486f6a4d4758394170534731772d57396b376b33324168735f556b6c5a5f44535a6677267368747470733a2f2f766172696574792e636f6d2f77702d636f6e74656e742f75706c6f6164732f323032342f30392f7472756d702d73686f6f74696e672e6a70673f773d3130303026683d3636372663726f703d31",
					"opcodes": "PUSH1 0x80 PUSH1 0x40 MSTORE PUSH2 0x3E8 PUSH1 0x9 SSTORE CALLVALUE DUP1 ISZERO PUSH2 0x15 JUMPI PUSH0 DUP1 REVERT JUMPDEST POP CALLER PUSH1 0x8 PUSH0 PUSH2 0x100 EXP DUP2 SLOAD DUP2 PUSH20 0xFFFFFFFFFFFFFFFFFFFFFFFFFFFFFFFFFFFFFFFF MUL NOT AND SWAP1 DUP4 PUSH20 0xFFFFFFFFFFFFFFFFFFFFFFFFFFFFFFFFFFFFFFFF AND MUL OR SWAP1 SSTORE POP PUSH1 0x40 MLOAD DUP1 PUSH1 0xE0 ADD PUSH1 0x40 MSTORE DUP1 PUSH1 0x40 MLOAD DUP1 PUSH1 0x40 ADD PUSH1 0x40 MSTORE DUP1 PUSH1 0xC DUP2 MSTORE PUSH1 0x20 ADD PUSH32 0x446F6E616C74205472756D700000000000000000000000000000000000000000 DUP2 MSTORE POP DUP2 MSTORE PUSH1 0x20 ADD PUSH1 0x40 MLOAD DUP1 PUSH1 0x40 ADD PUSH1 0x40 MSTORE DUP1 PUSH1 0xD DUP2 MSTORE PUSH1 0x20 ADD PUSH32 0x4B616D616C612048617272697300000000000000000000000000000000000000 DUP2 MSTORE POP DUP2 MSTORE PUSH1 0x20 ADD PUSH1 0x40 MLOAD DUP1 PUSH1 0x80 ADD PUSH1 0x40 MSTORE DUP1 PUSH1 0x55 DUP2 MSTORE PUSH1 0x20 ADD PUSH2 0x13E8 PUSH1 0x55 SWAP2 CODECOPY DUP2 MSTORE PUSH1 0x20 ADD PUSH1 0x40 MLOAD DUP1 PUSH1 0x80 ADD PUSH1 0x40 MSTORE DUP1 PUSH1 0x5C DUP2 MSTORE PUSH1 0x20 ADD PUSH2 0x138C PUSH1 0x5C SWAP2 CODECOPY DUP2 MSTORE PUSH1 0x20 ADD PUSH0 DUP2 MSTORE PUSH1 0x20 ADD PUSH0 DUP2 MSTORE PUSH1 0x20 ADD PUSH0 DUP2 MSTORE POP PUSH0 DUP1 DUP3 ADD MLOAD DUP2 PUSH0 ADD SWAP1 DUP2 PUSH2 0x137 SWAP2 SWAP1 PUSH2 0x3DA JUMP JUMPDEST POP PUSH1 0x20 DUP3 ADD MLOAD DUP2 PUSH1 0x1 ADD SWAP1 DUP2 PUSH2 0x14D SWAP2 SWAP1 PUSH2 0x3DA JUMP JUMPDEST POP PUSH1 0x40 DUP3 ADD MLOAD DUP2 PUSH1 0x2 ADD SWAP1 DUP2 PUSH2 0x163 SWAP2 SWAP1 PUSH2 0x3DA JUMP JUMPDEST POP PUSH1 0x60 DUP3 ADD MLOAD DUP2 PUSH1 0x3 ADD SWAP1 DUP2 PUSH2 0x179 SWAP2 SWAP1 PUSH2 0x3DA JUMP JUMPDEST POP PUSH1 0x80 DUP3 ADD MLOAD DUP2 PUSH1 0x4 ADD SSTORE PUSH1 0xA0 DUP3 ADD MLOAD DUP2 PUSH1 0x5 ADD SSTORE PUSH1 0xC0 DUP3 ADD MLOAD DUP2 PUSH1 0x6 ADD SSTORE SWAP1 POP POP PUSH2 0x4A9 JUMP JUMPDEST PUSH0 DUP2 MLOAD SWAP1 POP SWAP2 SWAP1 POP JUMP JUMPDEST PUSH32 0x4E487B7100000000000000000000000000000000000000000000000000000000 PUSH0 MSTORE PUSH1 0x41 PUSH1 0x4 MSTORE PUSH1 0x24 PUSH0 REVERT JUMPDEST PUSH32 0x4E487B7100000000000000000000000000000000000000000000000000000000 PUSH0 MSTORE PUSH1 0x22 PUSH1 0x4 MSTORE PUSH1 0x24 PUSH0 REVERT JUMPDEST PUSH0 PUSH1 0x2 DUP3 DIV SWAP1 POP PUSH1 0x1 DUP3 AND DUP1 PUSH2 0x21B JUMPI PUSH1 0x7F DUP3 AND SWAP2 POP JUMPDEST PUSH1 0x20 DUP3 LT DUP2 SUB PUSH2 0x22E JUMPI PUSH2 0x22D PUSH2 0x1D7 JUMP JUMPDEST JUMPDEST POP SWAP2 SWAP1 POP JUMP JUMPDEST PUSH0 DUP2 SWAP1 POP DUP2 PUSH0 MSTORE PUSH1 0x20 PUSH0 KECCAK256 SWAP1 POP SWAP2 SWAP1 POP JUMP JUMPDEST PUSH0 PUSH1 0x20 PUSH1 0x1F DUP4 ADD DIV SWAP1 POP SWAP2 SWAP1 POP JUMP JUMPDEST PUSH0 DUP3 DUP3 SHL SWAP1 POP SWAP3 SWAP2 POP POP JUMP JUMPDEST PUSH0 PUSH1 0x8 DUP4 MUL PUSH2 0x290 PUSH32 0xFFFFFFFFFFFFFFFFFFFFFFFFFFFFFFFFFFFFFFFFFFFFFFFFFFFFFFFFFFFFFFFF DUP3 PUSH2 0x255 JUMP JUMPDEST PUSH2 0x29A DUP7 DUP4 PUSH2 0x255 JUMP JUMPDEST SWAP6 POP DUP1 NOT DUP5 AND SWAP4 POP DUP1 DUP7 AND DUP5 OR SWAP3 POP POP POP SWAP4 SWAP3 POP POP POP JUMP JUMPDEST PUSH0 DUP2 SWAP1 POP SWAP2 SWAP1 POP JUMP JUMPDEST PUSH0 DUP2 SWAP1 POP SWAP2 SWAP1 POP JUMP JUMPDEST PUSH0 PUSH2 0x2DE PUSH2 0x2D9 PUSH2 0x2D4 DUP5 PUSH2 0x2B2 JUMP JUMPDEST PUSH2 0x2BB JUMP JUMPDEST PUSH2 0x2B2 JUMP JUMPDEST SWAP1 POP SWAP2 SWAP1 POP JUMP JUMPDEST PUSH0 DUP2 SWAP1 POP SWAP2 SWAP1 POP JUMP JUMPDEST PUSH2 0x2F7 DUP4 PUSH2 0x2C4 JUMP JUMPDEST PUSH2 0x30B PUSH2 0x303 DUP3 PUSH2 0x2E5 JUMP JUMPDEST DUP5 DUP5 SLOAD PUSH2 0x261 JUMP JUMPDEST DUP3 SSTORE POP POP POP POP JUMP JUMPDEST PUSH0 SWAP1 JUMP JUMPDEST PUSH2 0x31F PUSH2 0x313 JUMP JUMPDEST PUSH2 0x32A DUP2 DUP5 DUP5 PUSH2 0x2EE JUMP JUMPDEST POP POP POP JUMP JUMPDEST JUMPDEST DUP2 DUP2 LT ISZERO PUSH2 0x34D JUMPI PUSH2 0x342 PUSH0 DUP3 PUSH2 0x317 JUMP JUMPDEST PUSH1 0x1 DUP2 ADD SWAP1 POP PUSH2 0x330 JUMP JUMPDEST POP POP JUMP JUMPDEST PUSH1 0x1F DUP3 GT ISZERO PUSH2 0x392 JUMPI PUSH2 0x363 DUP2 PUSH2 0x234 JUMP JUMPDEST PUSH2 0x36C DUP5 PUSH2 0x246 JUMP JUMPDEST DUP2 ADD PUSH1 0x20 DUP6 LT ISZERO PUSH2 0x37B JUMPI DUP2 SWAP1 POP JUMPDEST PUSH2 0x38F PUSH2 0x387 DUP6 PUSH2 0x246 JUMP JUMPDEST DUP4 ADD DUP3 PUSH2 0x32F JUMP JUMPDEST POP POP JUMPDEST POP POP POP JUMP JUMPDEST PUSH0 DUP3 DUP3 SHR SWAP1 POP SWAP3 SWAP2 POP POP JUMP JUMPDEST PUSH0 PUSH2 0x3B2 PUSH0 NOT DUP5 PUSH1 0x8 MUL PUSH2 0x397 JUMP JUMPDEST NOT DUP1 DUP4 AND SWAP2 POP POP SWAP3 SWAP2 POP POP JUMP JUMPDEST PUSH0 PUSH2 0x3CA DUP4 DUP4 PUSH2 0x3A3 JUMP JUMPDEST SWAP2 POP DUP3 PUSH1 0x2 MUL DUP3 OR SWAP1 POP SWAP3 SWAP2 POP POP JUMP JUMPDEST PUSH2 0x3E3 DUP3 PUSH2 0x1A0 JUMP JUMPDEST PUSH8 0xFFFFFFFFFFFFFFFF DUP2 GT ISZERO PUSH2 0x3FC JUMPI PUSH2 0x3FB PUSH2 0x1AA JUMP JUMPDEST JUMPDEST PUSH2 0x406 DUP3 SLOAD PUSH2 0x204 JUMP JUMPDEST PUSH2 0x411 DUP3 DUP3 DUP6 PUSH2 0x351 JUMP JUMPDEST PUSH0 PUSH1 0x20 SWAP1 POP PUSH1 0x1F DUP4 GT PUSH1 0x1 DUP2 EQ PUSH2 0x442 JUMPI PUSH0 DUP5 ISZERO PUSH2 0x430 JUMPI DUP3 DUP8 ADD MLOAD SWAP1 POP JUMPDEST PUSH2 0x43A DUP6 DUP3 PUSH2 0x3BF JUMP JUMPDEST DUP7 SSTORE POP PUSH2 0x4A1 JUMP JUMPDEST PUSH1 0x1F NOT DUP5 AND PUSH2 0x450 DUP7 PUSH2 0x234 JUMP JUMPDEST PUSH0 JUMPDEST DUP3 DUP2 LT ISZERO PUSH2 0x477 JUMPI DUP5 DUP10 ADD MLOAD DUP3 SSTORE PUSH1 0x1 DUP3 ADD SWAP2 POP PUSH1 0x20 DUP6 ADD SWAP5 POP PUSH1 0x20 DUP2 ADD SWAP1 POP PUSH2 0x452 JUMP JUMPDEST DUP7 DUP4 LT ISZERO PUSH2 0x494 JUMPI DUP5 DUP10 ADD MLOAD PUSH2 0x490 PUSH1 0x1F DUP10 AND DUP3 PUSH2 0x3A3 JUMP JUMPDEST DUP4 SSTORE POP JUMPDEST PUSH1 0x1 PUSH1 0x2 DUP9 MUL ADD DUP9 SSTORE POP POP POP JUMPDEST POP POP POP POP POP POP JUMP JUMPDEST PUSH2 0xED6 DUP1 PUSH2 0x4B6 PUSH0 CODECOPY PUSH0 RETURN INVALID PUSH1 0x80 PUSH1 0x40 MSTORE PUSH1 0x4 CALLDATASIZE LT PUSH2 0x54 JUMPI PUSH0 CALLDATALOAD PUSH1 0xE0 SHR DUP1 PUSH4 0x121DE3F6 EQ PUSH2 0x58 JUMPI DUP1 PUSH4 0x4E71D92D EQ PUSH2 0x82 JUMPI DUP1 PUSH4 0x7365870B EQ PUSH2 0x98 JUMPI DUP1 PUSH4 0x93BEBEE8 EQ PUSH2 0xB4 JUMPI DUP1 PUSH4 0xD353A1CB EQ PUSH2 0xF3 JUMPI DUP1 PUSH4 0xF240F7C3 EQ PUSH2 0x11B JUMPI JUMPDEST PUSH0 DUP1 REVERT JUMPDEST CALLVALUE DUP1 ISZERO PUSH2 0x63 JUMPI PUSH0 DUP1 REVERT JUMPDEST POP PUSH2 0x6C PUSH2 0x14B JUMP JUMPDEST PUSH1 0x40 MLOAD PUSH2 0x79 SWAP2 SWAP1 PUSH2 0x90A JUMP JUMPDEST PUSH1 0x40 MLOAD DUP1 SWAP2 SUB SWAP1 RETURN JUMPDEST CALLVALUE DUP1 ISZERO PUSH2 0x8D JUMPI PUSH0 DUP1 REVERT JUMPDEST POP PUSH2 0x96 PUSH2 0x151 JUMP JUMPDEST STOP JUMPDEST PUSH2 0xB2 PUSH1 0x4 DUP1 CALLDATASIZE SUB DUP2 ADD SWAP1 PUSH2 0xAD SWAP2 SWAP1 PUSH2 0x951 JUMP JUMPDEST PUSH2 0x2DF JUMP JUMPDEST STOP JUMPDEST CALLVALUE DUP1 ISZERO PUSH2 0xBF JUMPI PUSH0 DUP1 REVERT JUMPDEST POP PUSH2 0xDA PUSH1 0x4 DUP1 CALLDATASIZE SUB DUP2 ADD SWAP1 PUSH2 0xD5 SWAP2 SWAP1 PUSH2 0x9D6 JUMP JUMPDEST PUSH2 0x487 JUMP JUMPDEST PUSH1 0x40 MLOAD PUSH2 0xEA SWAP5 SWAP4 SWAP3 SWAP2 SWAP1 PUSH2 0xA01 JUMP JUMPDEST PUSH1 0x40 MLOAD DUP1 SWAP2 SUB SWAP1 RETURN JUMPDEST CALLVALUE DUP1 ISZERO PUSH2 0xFE JUMPI PUSH0 DUP1 REVERT JUMPDEST POP PUSH2 0x119 PUSH1 0x4 DUP1 CALLDATASIZE SUB DUP2 ADD SWAP1 PUSH2 0x114 SWAP2 SWAP1 PUSH2 0x951 JUMP JUMPDEST PUSH2 0x4B3 JUMP JUMPDEST STOP JUMPDEST CALLVALUE DUP1 ISZERO PUSH2 0x126 JUMPI PUSH0 DUP1 REVERT JUMPDEST POP PUSH2 0x12F PUSH2 0x688 JUMP JUMPDEST PUSH1 0x40 MLOAD PUSH2 0x142 SWAP8 SWAP7 SWAP6 SWAP5 SWAP4 SWAP3 SWAP2 SWAP1 PUSH2 0xAB4 JUMP JUMPDEST PUSH1 0x40 MLOAD DUP1 SWAP2 SUB SWAP1 RETURN JUMPDEST PUSH1 0xA SLOAD DUP2 JUMP JUMPDEST PUSH0 PUSH1 0x7 PUSH0 CALLER PUSH20 0xFFFFFFFFFFFFFFFFFFFFFFFFFFFFFFFFFFFFFFFF AND PUSH20 0xFFFFFFFFFFFFFFFFFFFFFFFFFFFFFFFFFFFFFFFF AND DUP2 MSTORE PUSH1 0x20 ADD SWAP1 DUP2 MSTORE PUSH1 0x20 ADD PUSH0 KECCAK256 PUSH1 0x40 MLOAD DUP1 PUSH1 0x80 ADD PUSH1 0x40 MSTORE SWAP1 DUP2 PUSH0 DUP3 ADD SLOAD DUP2 MSTORE PUSH1 0x20 ADD PUSH1 0x1 DUP3 ADD SLOAD DUP2 MSTORE PUSH1 0x20 ADD PUSH1 0x2 DUP3 ADD SLOAD DUP2 MSTORE PUSH1 0x20 ADD PUSH1 0x3 DUP3 ADD SLOAD DUP2 MSTORE POP POP SWAP1 POP PUSH0 DUP1 PUSH1 0x6 ADD SLOAD GT DUP1 ISZERO PUSH2 0x1DD JUMPI POP DUP1 PUSH1 0x20 ADD MLOAD PUSH0 PUSH1 0x6 ADD SLOAD EQ JUMPDEST DUP1 ISZERO PUSH2 0x1EC JUMPI POP PUSH0 DUP2 PUSH1 0x60 ADD MLOAD EQ JUMPDEST PUSH2 0x1F4 JUMPI PUSH0 DUP1 REVERT JUMPDEST PUSH0 PUSH1 0x1 PUSH0 PUSH1 0x6 ADD SLOAD EQ PUSH2 0x20B JUMPI PUSH0 PUSH1 0x5 ADD SLOAD PUSH2 0x211 JUMP JUMPDEST PUSH0 PUSH1 0x4 ADD SLOAD JUMPDEST SWAP1 POP PUSH0 DUP2 PUSH2 0x2710 DUP5 PUSH0 ADD MLOAD PUSH2 0x226 SWAP2 SWAP1 PUSH2 0xB6A JUMP JUMPDEST PUSH2 0x230 SWAP2 SWAP1 PUSH2 0xBD8 JUMP JUMPDEST SWAP1 POP PUSH0 PUSH2 0x2710 DUP3 PUSH1 0xA SLOAD PUSH2 0x244 SWAP2 SWAP1 PUSH2 0xB6A JUMP JUMPDEST PUSH2 0x24E SWAP2 SWAP1 PUSH2 0xBD8 JUMP JUMPDEST SWAP1 POP DUP1 PUSH1 0x7 PUSH0 CALLER PUSH20 0xFFFFFFFFFFFFFFFFFFFFFFFFFFFFFFFFFFFFFFFF AND PUSH20 0xFFFFFFFFFFFFFFFFFFFFFFFFFFFFFFFFFFFFFFFF AND DUP2 MSTORE PUSH1 0x20 ADD SWAP1 DUP2 MSTORE PUSH1 0x20 ADD PUSH0 KECCAK256 PUSH1 0x3 ADD DUP2 SWAP1 SSTORE POP CALLER PUSH20 0xFFFFFFFFFFFFFFFFFFFFFFFFFFFFFFFFFFFFFFFF AND PUSH2 0x8FC DUP3 SWAP1 DUP2 ISZERO MUL SWAP1 PUSH1 0x40 MLOAD PUSH0 PUSH1 0x40 MLOAD DUP1 DUP4 SUB DUP2 DUP6 DUP9 DUP9 CALL SWAP4 POP POP POP POP ISZERO DUP1 ISZERO PUSH2 0x2D8 JUMPI RETURNDATASIZE PUSH0 DUP1 RETURNDATACOPY RETURNDATASIZE PUSH0 REVERT JUMPDEST POP POP POP POP POP JUMP JUMPDEST PUSH1 0x1 DUP2 EQ DUP1 PUSH2 0x2EE JUMPI POP PUSH1 0x2 DUP2 EQ JUMPDEST PUSH2 0x32D JUMPI PUSH1 0x40 MLOAD PUSH32 0x8C379A000000000000000000000000000000000000000000000000000000000 DUP2 MSTORE PUSH1 0x4 ADD PUSH2 0x324 SWAP1 PUSH2 0xC52 JUMP JUMPDEST PUSH1 0x40 MLOAD DUP1 SWAP2 SUB SWAP1 REVERT JUMPDEST PUSH0 CALLVALUE GT PUSH2 0x36F JUMPI PUSH1 0x40 MLOAD PUSH32 0x8C379A000000000000000000000000000000000000000000000000000000000 DUP2 MSTORE PUSH1 0x4 ADD PUSH2 0x366 SWAP1 PUSH2 0xCBA JUMP JUMPDEST PUSH1 0x40 MLOAD DUP1 SWAP2 SUB SWAP1 REVERT JUMPDEST PUSH0 DUP1 PUSH1 0x6 ADD SLOAD EQ PUSH2 0x3B5 JUMPI PUSH1 0x40 MLOAD PUSH32 0x8C379A000000000000000000000000000000000000000000000000000000000 DUP2 MSTORE PUSH1 0x4 ADD PUSH2 0x3AC SWAP1 PUSH2 0xD22 JUMP JUMPDEST PUSH1 0x40 MLOAD DUP1 SWAP2 SUB SWAP1 REVERT JUMPDEST PUSH2 0x3BD PUSH2 0x8CE JUMP JUMPDEST CALLVALUE DUP2 PUSH0 ADD DUP2 DUP2 MSTORE POP POP DUP2 DUP2 PUSH1 0x20 ADD DUP2 DUP2 MSTORE POP POP TIMESTAMP DUP2 PUSH1 0x40 ADD DUP2 DUP2 MSTORE POP POP DUP1 PUSH1 0x7 PUSH0 CALLER PUSH20 0xFFFFFFFFFFFFFFFFFFFFFFFFFFFFFFFFFFFFFFFF AND PUSH20 0xFFFFFFFFFFFFFFFFFFFFFFFFFFFFFFFFFFFFFFFF AND DUP2 MSTORE PUSH1 0x20 ADD SWAP1 DUP2 MSTORE PUSH1 0x20 ADD PUSH0 KECCAK256 PUSH0 DUP3 ADD MLOAD DUP2 PUSH0 ADD SSTORE PUSH1 0x20 DUP3 ADD MLOAD DUP2 PUSH1 0x1 ADD SSTORE PUSH1 0x40 DUP3 ADD MLOAD DUP2 PUSH1 0x2 ADD SSTORE PUSH1 0x60 DUP3 ADD MLOAD DUP2 PUSH1 0x3 ADD SSTORE SWAP1 POP POP PUSH1 0x1 DUP3 SUB PUSH2 0x468 JUMPI CALLVALUE PUSH0 PUSH1 0x4 ADD PUSH0 DUP3 DUP3 SLOAD PUSH2 0x45C SWAP2 SWAP1 PUSH2 0xD40 JUMP JUMPDEST SWAP3 POP POP DUP2 SWAP1 SSTORE POP PUSH2 0x483 JUMP JUMPDEST CALLVALUE PUSH0 PUSH1 0x5 ADD PUSH0 DUP3 DUP3 SLOAD PUSH2 0x47B SWAP2 SWAP1 PUSH2 0xD40 JUMP JUMPDEST SWAP3 POP POP DUP2 SWAP1 SSTORE POP JUMPDEST POP POP JUMP JUMPDEST PUSH1 0x7 PUSH1 0x20 MSTORE DUP1 PUSH0 MSTORE PUSH1 0x40 PUSH0 KECCAK256 PUSH0 SWAP2 POP SWAP1 POP DUP1 PUSH0 ADD SLOAD SWAP1 DUP1 PUSH1 0x1 ADD SLOAD SWAP1 DUP1 PUSH1 0x2 ADD SLOAD SWAP1 DUP1 PUSH1 0x3 ADD SLOAD SWAP1 POP DUP5 JUMP JUMPDEST PUSH1 0x8 PUSH0 SWAP1 SLOAD SWAP1 PUSH2 0x100 EXP SWAP1 DIV PUSH20 0xFFFFFFFFFFFFFFFFFFFFFFFFFFFFFFFFFFFFFFFF AND PUSH20 0xFFFFFFFFFFFFFFFFFFFFFFFFFFFFFFFFFFFFFFFF AND CALLER PUSH20 0xFFFFFFFFFFFFFFFFFFFFFFFFFFFFFFFFFFFFFFFF AND EQ PUSH2 0x542 JUMPI PUSH1 0x40 MLOAD PUSH32 0x8C379A000000000000000000000000000000000000000000000000000000000 DUP2 MSTORE PUSH1 0x4 ADD PUSH2 0x539 SWAP1 PUSH2 0xDBD JUMP JUMPDEST PUSH1 0x40 MLOAD DUP1 SWAP2 SUB SWAP1 REVERT JUMPDEST PUSH1 0x1 DUP2 EQ DUP1 PUSH2 0x551 JUMPI POP PUSH1 0x2 DUP2 EQ JUMPDEST PUSH2 0x590 JUMPI PUSH1 0x40 MLOAD PUSH32 0x8C379A000000000000000000000000000000000000000000000000000000000 DUP2 MSTORE PUSH1 0x4 ADD PUSH2 0x587 SWAP1 PUSH2 0xC52 JUMP JUMPDEST PUSH1 0x40 MLOAD DUP1 SWAP2 SUB SWAP1 REVERT JUMPDEST PUSH0 DUP1 PUSH1 0x6 ADD SLOAD EQ PUSH2 0x5D6 JUMPI PUSH1 0x40 MLOAD PUSH32 0x8C379A000000000000000000000000000000000000000000000000000000000 DUP2 MSTORE PUSH1 0x4 ADD PUSH2 0x5CD SWAP1 PUSH2 0xE25 JUMP JUMPDEST PUSH1 0x40 MLOAD DUP1 SWAP2 SUB SWAP1 REVERT JUMPDEST DUP1 PUSH0 PUSH1 0x6 ADD DUP2 SWAP1 SSTORE POP PUSH0 DUP1 PUSH1 0x5 ADD SLOAD PUSH0 PUSH1 0x4 ADD SLOAD PUSH2 0x5F4 SWAP2 SWAP1 PUSH2 0xD40 JUMP JUMPDEST SWAP1 POP PUSH0 PUSH2 0x2710 PUSH1 0x9 SLOAD DUP4 PUSH2 0x608 SWAP2 SWAP1 PUSH2 0xB6A JUMP JUMPDEST PUSH2 0x612 SWAP2 SWAP1 PUSH2 0xBD8 JUMP JUMPDEST SWAP1 POP DUP1 SWAP2 POP DUP2 PUSH1 0xA DUP2 SWAP1 SSTORE POP PUSH1 0x8 PUSH0 SWAP1 SLOAD SWAP1 PUSH2 0x100 EXP SWAP1 DIV PUSH20 0xFFFFFFFFFFFFFFFFFFFFFFFFFFFFFFFFFFFFFFFF AND PUSH20 0xFFFFFFFFFFFFFFFFFFFFFFFFFFFFFFFFFFFFFFFF AND PUSH2 0x8FC DUP3 SWAP1 DUP2 ISZERO MUL SWAP1 PUSH1 0x40 MLOAD PUSH0 PUSH1 0x40 MLOAD DUP1 DUP4 SUB DUP2 DUP6 DUP9 DUP9 CALL SWAP4 POP POP POP POP ISZERO DUP1 ISZERO PUSH2 0x682 JUMPI RETURNDATASIZE PUSH0 DUP1 RETURNDATACOPY RETURNDATASIZE PUSH0 REVERT JUMPDEST POP POP POP POP JUMP JUMPDEST PUSH0 DUP1 PUSH0 ADD DUP1 SLOAD PUSH2 0x697 SWAP1 PUSH2 0xE70 JUMP JUMPDEST DUP1 PUSH1 0x1F ADD PUSH1 0x20 DUP1 SWAP2 DIV MUL PUSH1 0x20 ADD PUSH1 0x40 MLOAD SWAP1 DUP2 ADD PUSH1 0x40 MSTORE DUP1 SWAP3 SWAP2 SWAP1 DUP2 DUP2 MSTORE PUSH1 0x20 ADD DUP3 DUP1 SLOAD PUSH2 0x6C3 SWAP1 PUSH2 0xE70 JUMP JUMPDEST DUP1 ISZERO PUSH2 0x70E JUMPI DUP1 PUSH1 0x1F LT PUSH2 0x6E5 JUMPI PUSH2 0x100 DUP1 DUP4 SLOAD DIV MUL DUP4 MSTORE SWAP2 PUSH1 0x20 ADD SWAP2 PUSH2 0x70E JUMP JUMPDEST DUP3 ADD SWAP2 SWAP1 PUSH0 MSTORE PUSH1 0x20 PUSH0 KECCAK256 SWAP1 JUMPDEST DUP2 SLOAD DUP2 MSTORE SWAP1 PUSH1 0x1 ADD SWAP1 PUSH1 0x20 ADD DUP1 DUP4 GT PUSH2 0x6F1 JUMPI DUP3 SWAP1 SUB PUSH1 0x1F AND DUP3 ADD SWAP2 JUMPDEST POP POP POP POP POP SWAP1 DUP1 PUSH1 0x1 ADD DUP1 SLOAD PUSH2 0x723 SWAP1 PUSH2 0xE70 JUMP JUMPDEST DUP1 PUSH1 0x1F ADD PUSH1 0x20 DUP1 SWAP2 DIV MUL PUSH1 0x20 ADD PUSH1 0x40 MLOAD SWAP1 DUP2 ADD PUSH1 0x40 MSTORE DUP1 SWAP3 SWAP2 SWAP1 DUP2 DUP2 MSTORE PUSH1 0x20 ADD DUP3 DUP1 SLOAD PUSH2 0x74F SWAP1 PUSH2 0xE70 JUMP JUMPDEST DUP1 ISZERO PUSH2 0x79A JUMPI DUP1 PUSH1 0x1F LT PUSH2 0x771 JUMPI PUSH2 0x100 DUP1 DUP4 SLOAD DIV MUL DUP4 MSTORE SWAP2 PUSH1 0x20 ADD SWAP2 PUSH2 0x79A JUMP JUMPDEST DUP3 ADD SWAP2 SWAP1 PUSH0 MSTORE PUSH1 0x20 PUSH0 KECCAK256 SWAP1 JUMPDEST DUP2 SLOAD DUP2 MSTORE SWAP1 PUSH1 0x1 ADD SWAP1 PUSH1 0x20 ADD DUP1 DUP4 GT PUSH2 0x77D JUMPI DUP3 SWAP1 SUB PUSH1 0x1F AND DUP3 ADD SWAP2 JUMPDEST POP POP POP POP POP SWAP1 DUP1 PUSH1 0x2 ADD DUP1 SLOAD PUSH2 0x7AF SWAP1 PUSH2 0xE70 JUMP JUMPDEST DUP1 PUSH1 0x1F ADD PUSH1 0x20 DUP1 SWAP2 DIV MUL PUSH1 0x20 ADD PUSH1 0x40 MLOAD SWAP1 DUP2 ADD PUSH1 0x40 MSTORE DUP1 SWAP3 SWAP2 SWAP1 DUP2 DUP2 MSTORE PUSH1 0x20 ADD DUP3 DUP1 SLOAD PUSH2 0x7DB SWAP1 PUSH2 0xE70 JUMP JUMPDEST DUP1 ISZERO PUSH2 0x826 JUMPI DUP1 PUSH1 0x1F LT PUSH2 0x7FD JUMPI PUSH2 0x100 DUP1 DUP4 SLOAD DIV MUL DUP4 MSTORE SWAP2 PUSH1 0x20 ADD SWAP2 PUSH2 0x826 JUMP JUMPDEST DUP3 ADD SWAP2 SWAP1 PUSH0 MSTORE PUSH1 0x20 PUSH0 KECCAK256 SWAP1 JUMPDEST DUP2 SLOAD DUP2 MSTORE SWAP1 PUSH1 0x1 ADD SWAP1 PUSH1 0x20 ADD DUP1 DUP4 GT PUSH2 0x809 JUMPI DUP3 SWAP1 SUB PUSH1 0x1F AND DUP3 ADD SWAP2 JUMPDEST POP POP POP POP POP SWAP1 DUP1 PUSH1 0x3 ADD DUP1 SLOAD PUSH2 0x83B SWAP1 PUSH2 0xE70 JUMP JUMPDEST DUP1 PUSH1 0x1F ADD PUSH1 0x20 DUP1 SWAP2 DIV MUL PUSH1 0x20 ADD PUSH1 0x40 MLOAD SWAP1 DUP2 ADD PUSH1 0x40 MSTORE DUP1 SWAP3 SWAP2 SWAP1 DUP2 DUP2 MSTORE PUSH1 0x20 ADD DUP3 DUP1 SLOAD PUSH2 0x867 SWAP1 PUSH2 0xE70 JUMP JUMPDEST DUP1 ISZERO PUSH2 0x8B2 JUMPI DUP1 PUSH1 0x1F LT PUSH2 0x889 JUMPI PUSH2 0x100 DUP1 DUP4 SLOAD DIV MUL DUP4 MSTORE SWAP2 PUSH1 0x20 ADD SWAP2 PUSH2 0x8B2 JUMP JUMPDEST DUP3 ADD SWAP2 SWAP1 PUSH0 MSTORE PUSH1 0x20 PUSH0 KECCAK256 SWAP1 JUMPDEST DUP2 SLOAD DUP2 MSTORE SWAP1 PUSH1 0x1 ADD SWAP1 PUSH1 0x20 ADD DUP1 DUP4 GT PUSH2 0x895 JUMPI DUP3 SWAP1 SUB PUSH1 0x1F AND DUP3 ADD SWAP2 JUMPDEST POP POP POP POP POP SWAP1 DUP1 PUSH1 0x4 ADD SLOAD SWAP1 DUP1 PUSH1 0x5 ADD SLOAD SWAP1 DUP1 PUSH1 0x6 ADD SLOAD SWAP1 POP DUP8 JUMP JUMPDEST PUSH1 0x40 MLOAD DUP1 PUSH1 0x80 ADD PUSH1 0x40 MSTORE DUP1 PUSH0 DUP2 MSTORE PUSH1 0x20 ADD PUSH0 DUP2 MSTORE PUSH1 0x20 ADD PUSH0 DUP2 MSTORE PUSH1 0x20 ADD PUSH0 DUP2 MSTORE POP SWAP1 JUMP JUMPDEST PUSH0 DUP2 SWAP1 POP SWAP2 SWAP1 POP JUMP JUMPDEST PUSH2 0x904 DUP2 PUSH2 0x8F2 JUMP JUMPDEST DUP3 MSTORE POP POP JUMP JUMPDEST PUSH0 PUSH1 0x20 DUP3 ADD SWAP1 POP PUSH2 0x91D PUSH0 DUP4 ADD DUP5 PUSH2 0x8FB JUMP JUMPDEST SWAP3 SWAP2 POP POP JUMP JUMPDEST PUSH0 DUP1 REVERT JUMPDEST PUSH2 0x930 DUP2 PUSH2 0x8F2 JUMP JUMPDEST DUP2 EQ PUSH2 0x93A JUMPI PUSH0 DUP1 REVERT JUMPDEST POP JUMP JUMPDEST PUSH0 DUP2 CALLDATALOAD SWAP1 POP PUSH2 0x94B DUP2 PUSH2 0x927 JUMP JUMPDEST SWAP3 SWAP2 POP POP JUMP JUMPDEST PUSH0 PUSH1 0x20 DUP3 DUP5 SUB SLT ISZERO PUSH2 0x966 JUMPI PUSH2 0x965 PUSH2 0x923 JUMP JUMPDEST JUMPDEST PUSH0 PUSH2 0x973 DUP5 DUP3 DUP6 ADD PUSH2 0x93D JUMP JUMPDEST SWAP2 POP POP SWAP3 SWAP2 POP POP JUMP JUMPDEST PUSH0 PUSH20 0xFFFFFFFFFFFFFFFFFFFFFFFFFFFFFFFFFFFFFFFF DUP3 AND SWAP1 POP SWAP2 SWAP1 POP JUMP JUMPDEST PUSH0 PUSH2 0x9A5 DUP3 PUSH2 0x97C JUMP JUMPDEST SWAP1 POP SWAP2 SWAP1 POP JUMP JUMPDEST PUSH2 0x9B5 DUP2 PUSH2 0x99B JUMP JUMPDEST DUP2 EQ PUSH2 0x9BF JUMPI PUSH0 DUP1 REVERT JUMPDEST POP JUMP JUMPDEST PUSH0 DUP2 CALLDATALOAD SWAP1 POP PUSH2 0x9D0 DUP2 PUSH2 0x9AC JUMP JUMPDEST SWAP3 SWAP2 POP POP JUMP JUMPDEST PUSH0 PUSH1 0x20 DUP3 DUP5 SUB SLT ISZERO PUSH2 0x9EB JUMPI PUSH2 0x9EA PUSH2 0x923 JUMP JUMPDEST JUMPDEST PUSH0 PUSH2 0x9F8 DUP5 DUP3 DUP6 ADD PUSH2 0x9C2 JUMP JUMPDEST SWAP2 POP POP SWAP3 SWAP2 POP POP JUMP JUMPDEST PUSH0 PUSH1 0x80 DUP3 ADD SWAP1 POP PUSH2 0xA14 PUSH0 DUP4 ADD DUP8 PUSH2 0x8FB JUMP JUMPDEST PUSH2 0xA21 PUSH1 0x20 DUP4 ADD DUP7 PUSH2 0x8FB JUMP JUMPDEST PUSH2 0xA2E PUSH1 0x40 DUP4 ADD DUP6 PUSH2 0x8FB JUMP JUMPDEST PUSH2 0xA3B PUSH1 0x60 DUP4 ADD DUP5 PUSH2 0x8FB JUMP JUMPDEST SWAP6 SWAP5 POP POP POP POP POP JUMP JUMPDEST PUSH0 DUP2 MLOAD SWAP1 POP SWAP2 SWAP1 POP JUMP JUMPDEST PUSH0 DUP3 DUP3 MSTORE PUSH1 0x20 DUP3 ADD SWAP1 POP SWAP3 SWAP2 POP POP JUMP JUMPDEST DUP3 DUP2 DUP4 MCOPY PUSH0 DUP4 DUP4 ADD MSTORE POP POP POP JUMP JUMPDEST PUSH0 PUSH1 0x1F NOT PUSH1 0x1F DUP4 ADD AND SWAP1 POP SWAP2 SWAP1 POP JUMP JUMPDEST PUSH0 PUSH2 0xA86 DUP3 PUSH2 0xA44 JUMP JUMPDEST PUSH2 0xA90 DUP2 DUP6 PUSH2 0xA4E JUMP JUMPDEST SWAP4 POP PUSH2 0xAA0 DUP2 DUP6 PUSH1 0x20 DUP7 ADD PUSH2 0xA5E JUMP JUMPDEST PUSH2 0xAA9 DUP2 PUSH2 0xA6C JUMP JUMPDEST DUP5 ADD SWAP2 POP POP SWAP3 SWAP2 POP POP JUMP JUMPDEST PUSH0 PUSH1 0xE0 DUP3 ADD SWAP1 POP DUP2 DUP2 SUB PUSH0 DUP4 ADD MSTORE PUSH2 0xACC DUP2 DUP11 PUSH2 0xA7C JUMP JUMPDEST SWAP1 POP DUP2 DUP2 SUB PUSH1 0x20 DUP4 ADD MSTORE PUSH2 0xAE0 DUP2 DUP10 PUSH2 0xA7C JUMP JUMPDEST SWAP1 POP DUP2 DUP2 SUB PUSH1 0x40 DUP4 ADD MSTORE PUSH2 0xAF4 DUP2 DUP9 PUSH2 0xA7C JUMP JUMPDEST SWAP1 POP DUP2 DUP2 SUB PUSH1 0x60 DUP4 ADD MSTORE PUSH2 0xB08 DUP2 DUP8 PUSH2 0xA7C JUMP JUMPDEST SWAP1 POP PUSH2 0xB17 PUSH1 0x80 DUP4 ADD DUP7 PUSH2 0x8FB JUMP JUMPDEST PUSH2 0xB24 PUSH1 0xA0 DUP4 ADD DUP6 PUSH2 0x8FB JUMP JUMPDEST PUSH2 0xB31 PUSH1 0xC0 DUP4 ADD DUP5 PUSH2 0x8FB JUMP JUMPDEST SWAP9 SWAP8 POP POP POP POP POP POP POP POP JUMP JUMPDEST PUSH32 0x4E487B7100000000000000000000000000000000000000000000000000000000 PUSH0 MSTORE PUSH1 0x11 PUSH1 0x4 MSTORE PUSH1 0x24 PUSH0 REVERT JUMPDEST PUSH0 PUSH2 0xB74 DUP3 PUSH2 0x8F2 JUMP JUMPDEST SWAP2 POP PUSH2 0xB7F DUP4 PUSH2 0x8F2 JUMP JUMPDEST SWAP3 POP DUP3 DUP3 MUL PUSH2 0xB8D DUP2 PUSH2 0x8F2 JUMP JUMPDEST SWAP2 POP DUP3 DUP3 DIV DUP5 EQ DUP4 ISZERO OR PUSH2 0xBA4 JUMPI PUSH2 0xBA3 PUSH2 0xB3D JUMP JUMPDEST JUMPDEST POP SWAP3 SWAP2 POP POP JUMP JUMPDEST PUSH32 0x4E487B7100000000000000000000000000000000000000000000000000000000 PUSH0 MSTORE PUSH1 0x12 PUSH1 0x4 MSTORE PUSH1 0x24 PUSH0 REVERT JUMPDEST PUSH0 PUSH2 0xBE2 DUP3 PUSH2 0x8F2 JUMP JUMPDEST SWAP2 POP PUSH2 0xBED DUP4 PUSH2 0x8F2 JUMP JUMPDEST SWAP3 POP DUP3 PUSH2 0xBFD JUMPI PUSH2 0xBFC PUSH2 0xBAB JUMP JUMPDEST JUMPDEST DUP3 DUP3 DIV SWAP1 POP SWAP3 SWAP2 POP POP JUMP JUMPDEST PUSH32 0x496E76616C69642063616E646964617465000000000000000000000000000000 PUSH0 DUP3 ADD MSTORE POP JUMP JUMPDEST PUSH0 PUSH2 0xC3C PUSH1 0x11 DUP4 PUSH2 0xA4E JUMP JUMPDEST SWAP2 POP PUSH2 0xC47 DUP3 PUSH2 0xC08 JUMP JUMPDEST PUSH1 0x20 DUP3 ADD SWAP1 POP SWAP2 SWAP1 POP JUMP JUMPDEST PUSH0 PUSH1 0x20 DUP3 ADD SWAP1 POP DUP2 DUP2 SUB PUSH0 DUP4 ADD MSTORE PUSH2 0xC69 DUP2 PUSH2 0xC30 JUMP JUMPDEST SWAP1 POP SWAP2 SWAP1 POP JUMP JUMPDEST PUSH32 0x496E76616C696420426574000000000000000000000000000000000000000000 PUSH0 DUP3 ADD MSTORE POP JUMP JUMPDEST PUSH0 PUSH2 0xCA4 PUSH1 0xB DUP4 PUSH2 0xA4E JUMP JUMPDEST SWAP2 POP PUSH2 0xCAF DUP3 PUSH2 0xC70 JUMP JUMPDEST PUSH1 0x20 DUP3 ADD SWAP1 POP SWAP2 SWAP1 POP JUMP JUMPDEST PUSH0 PUSH1 0x20 DUP3 ADD SWAP1 POP DUP2 DUP2 SUB PUSH0 DUP4 ADD MSTORE PUSH2 0xCD1 DUP2 PUSH2 0xC98 JUMP JUMPDEST SWAP1 POP SWAP2 SWAP1 POP JUMP JUMPDEST PUSH32 0x4469737075746520636C6F736564000000000000000000000000000000000000 PUSH0 DUP3 ADD MSTORE POP JUMP JUMPDEST PUSH0 PUSH2 0xD0C PUSH1 0xE DUP4 PUSH2 0xA4E JUMP JUMPDEST SWAP2 POP PUSH2 0xD17 DUP3 PUSH2 0xCD8 JUMP JUMPDEST PUSH1 0x20 DUP3 ADD SWAP1 POP SWAP2 SWAP1 POP JUMP JUMPDEST PUSH0 PUSH1 0x20 DUP3 ADD SWAP1 POP DUP2 DUP2 SUB PUSH0 DUP4 ADD MSTORE PUSH2 0xD39 DUP2 PUSH2 0xD00 JUMP JUMPDEST SWAP1 POP SWAP2 SWAP1 POP JUMP JUMPDEST PUSH0 PUSH2 0xD4A DUP3 PUSH2 0x8F2 JUMP JUMPDEST SWAP2 POP PUSH2 0xD55 DUP4 PUSH2 0x8F2 JUMP JUMPDEST SWAP3 POP DUP3 DUP3 ADD SWAP1 POP DUP1 DUP3 GT ISZERO PUSH2 0xD6D JUMPI PUSH2 0xD6C PUSH2 0xB3D JUMP JUMPDEST JUMPDEST SWAP3 SWAP2 POP POP JUMP JUMPDEST PUSH32 0x496E76616C69642063616E646964616500000000000000000000000000000000 PUSH0 DUP3 ADD MSTORE POP JUMP JUMPDEST PUSH0 PUSH2 0xDA7 PUSH1 0x10 DUP4 PUSH2 0xA4E JUMP JUMPDEST SWAP2 POP PUSH2 0xDB2 DUP3 PUSH2 0xD73 JUMP JUMPDEST PUSH1 0x20 DUP3 ADD SWAP1 POP SWAP2 SWAP1 POP JUMP JUMPDEST PUSH0 PUSH1 0x20 DUP3 ADD SWAP1 POP DUP2 DUP2 SUB PUSH0 DUP4 ADD MSTORE PUSH2 0xDD4 DUP2 PUSH2 0xD9B JUMP JUMPDEST SWAP1 POP SWAP2 SWAP1 POP JUMP JUMPDEST PUSH32 0x446973707574656420636C6F7365640000000000000000000000000000000000 PUSH0 DUP3 ADD MSTORE POP JUMP JUMPDEST PUSH0 PUSH2 0xE0F PUSH1 0xF DUP4 PUSH2 0xA4E JUMP JUMPDEST SWAP2 POP PUSH2 0xE1A DUP3 PUSH2 0xDDB JUMP JUMPDEST PUSH1 0x20 DUP3 ADD SWAP1 POP SWAP2 SWAP1 POP JUMP JUMPDEST PUSH0 PUSH1 0x20 DUP3 ADD SWAP1 POP DUP2 DUP2 SUB PUSH0 DUP4 ADD MSTORE PUSH2 0xE3C DUP2 PUSH2 0xE03 JUMP JUMPDEST SWAP1 POP SWAP2 SWAP1 POP JUMP JUMPDEST PUSH32 0x4E487B7100000000000000000000000000000000000000000000000000000000 PUSH0 MSTORE PUSH1 0x22 PUSH1 0x4 MSTORE PUSH1 0x24 PUSH0 REVERT JUMPDEST PUSH0 PUSH1 0x2 DUP3 DIV SWAP1 POP PUSH1 0x1 DUP3 AND DUP1 PUSH2 0xE87 JUMPI PUSH1 0x7F DUP3 AND SWAP2 POP JUMPDEST PUSH1 0x20 DUP3 LT DUP2 SUB PUSH2 0xE9A JUMPI PUSH2 0xE99 PUSH2 0xE43 JUMP JUMPDEST JUMPDEST POP SWAP2 SWAP1 POP JUMP INVALID LOG2 PUSH5 0x6970667358 0x22 SLT KECCAK256 GAS 0x22 0xC3 PUSH16 0x5DE16C69D084EBED92A9CB42F9222C40 SWAP15 DUP1 SLOAD PUSH31 0x955000DFCE8CE19F64736F6C634300081A003368747470733A2F2F656E6372 PUSH26 0x707465642D74626E302E677374617469632E636F6D2F696D6167 PUSH6 0x733F713D7462 PUSH15 0x3A414E6439476351486F6A4D475839 COINBASE PUSH17 0x534731772D57396B376B33324168735F55 PUSH12 0x6C5A5F44535A667726736874 PUSH21 0x70733A2F2F766172696574792E636F6D2F77702D63 PUSH16 0x6E74656E742F75706C6F6164732F3230 ORIGIN CALLVALUE 0x2F ADDRESS CODECOPY 0x2F PUSH21 0x72756D702D73686F6F74696E672E6A70673F773D31 ADDRESS ADDRESS ADDRESS 0x26 PUSH9 0x3D3636372663726F70 RETURNDATASIZE BALANCE "
				},
				"gasEstimates": {
					"creation": {
						"codeDepositCost": "759600",
						"executionCost": "infinite",
						"totalCost": "infinite"
					},
					"external": {
						"allBets(address)": "infinite",
						"bet(uint256)": "infinite",
						"claim()": "infinite",
						"dispute()": "infinite",
						"finish(uint256)": "infinite",
						"netPrize()": "2403"
					}
				},
				"methodIdentifiers": {
					"allBets(address)": "93bebee8",
					"bet(uint256)": "7365870b",
					"claim()": "4e71d92d",
					"dispute()": "f240f7c3",
					"finish(uint256)": "d353a1cb",
					"netPrize()": "121de3f6"
				}
			},
			"storageLayout": {
				"storage": [
					{
						"astId": 28,
						"contract": "contracts/BetCandidate.sol:BetCandidate",
						"label": "dispute",
						"offset": 0,
						"slot": "0",
						"type": "t_struct(Dispute)16_storage"
					},
					{
						"astId": 33,
						"contract": "contracts/BetCandidate.sol:BetCandidate",
						"label": "allBets",
						"offset": 0,
						"slot": "7",
						"type": "t_mapping(t_address,t_struct(Bet)25_storage)"
					},
					{
						"astId": 35,
						"contract": "contracts/BetCandidate.sol:BetCandidate",
						"label": "owner",
						"offset": 0,
						"slot": "8",
						"type": "t_address"
					},
					{
						"astId": 38,
						"contract": "contracts/BetCandidate.sol:BetCandidate",
						"label": "fee",
						"offset": 0,
						"slot": "9",
						"type": "t_uint256"
					},
					{
						"astId": 40,
						"contract": "contracts/BetCandidate.sol:BetCandidate",
						"label": "netPrize",
						"offset": 0,
						"slot": "10",
						"type": "t_uint256"
					}
				],
				"types": {
					"t_address": {
						"encoding": "inplace",
						"label": "address",
						"numberOfBytes": "20"
					},
					"t_mapping(t_address,t_struct(Bet)25_storage)": {
						"encoding": "mapping",
						"key": "t_address",
						"label": "mapping(address => struct Bet)",
						"numberOfBytes": "32",
						"value": "t_struct(Bet)25_storage"
					},
					"t_string_storage": {
						"encoding": "bytes",
						"label": "string",
						"numberOfBytes": "32"
					},
					"t_struct(Bet)25_storage": {
						"encoding": "inplace",
						"label": "struct Bet",
						"members": [
							{
								"astId": 18,
								"contract": "contracts/BetCandidate.sol:BetCandidate",
								"label": "amount",
								"offset": 0,
								"slot": "0",
								"type": "t_uint256"
							},
							{
								"astId": 20,
								"contract": "contracts/BetCandidate.sol:BetCandidate",
								"label": "candidate",
								"offset": 0,
								"slot": "1",
								"type": "t_uint256"
							},
							{
								"astId": 22,
								"contract": "contracts/BetCandidate.sol:BetCandidate",
								"label": "timestamp",
								"offset": 0,
								"slot": "2",
								"type": "t_uint256"
							},
							{
								"astId": 24,
								"contract": "contracts/BetCandidate.sol:BetCandidate",
								"label": "claimed",
								"offset": 0,
								"slot": "3",
								"type": "t_uint256"
							}
						],
						"numberOfBytes": "128"
					},
					"t_struct(Dispute)16_storage": {
						"encoding": "inplace",
						"label": "struct Dispute",
						"members": [
							{
								"astId": 3,
								"contract": "contracts/BetCandidate.sol:BetCandidate",
								"label": "candidate1",
								"offset": 0,
								"slot": "0",
								"type": "t_string_storage"
							},
							{
								"astId": 5,
								"contract": "contracts/BetCandidate.sol:BetCandidate",
								"label": "candidate2",
								"offset": 0,
								"slot": "1",
								"type": "t_string_storage"
							},
							{
								"astId": 7,
								"contract": "contracts/BetCandidate.sol:BetCandidate",
								"label": "image1",
								"offset": 0,
								"slot": "2",
								"type": "t_string_storage"
							},
							{
								"astId": 9,
								"contract": "contracts/BetCandidate.sol:BetCandidate",
								"label": "image2",
								"offset": 0,
								"slot": "3",
								"type": "t_string_storage"
							},
							{
								"astId": 11,
								"contract": "contracts/BetCandidate.sol:BetCandidate",
								"label": "total1",
								"offset": 0,
								"slot": "4",
								"type": "t_uint256"
							},
							{
								"astId": 13,
								"contract": "contracts/BetCandidate.sol:BetCandidate",
								"label": "total2",
								"offset": 0,
								"slot": "5",
								"type": "t_uint256"
							},
							{
								"astId": 15,
								"contract": "contracts/BetCandidate.sol:BetCandidate",
								"label": "winner",
								"offset": 0,
								"slot": "6",
								"type": "t_uint256"
							}
						],
						"numberOfBytes": "224"
					},
					"t_uint256": {
						"encoding": "inplace",
						"label": "uint256",
						"numberOfBytes": "32"
					}
				}
			},
			"userdoc": {
				"kind": "user",
				"methods": {},
				"version": 1
			}
		}
	}
}